{
  "_format": "hh-sol-artifact-1",
  "contractName": "Event",
  "sourceName": "contracts/Event.sol",
  "abi": [
    {
      "inputs": [
        {
          "internalType": "string",
          "name": "eventTitle",
          "type": "string"
        },
        {
          "internalType": "string",
          "name": "eventDescription",
          "type": "string"
        },
        {
          "internalType": "uint256",
          "name": "availableTickets",
          "type": "uint256"
        },
        {
          "internalType": "uint256",
          "name": "price",
          "type": "uint256"
        },
        {
          "internalType": "address",
          "name": "owner",
          "type": "address"
        }
      ],
      "stateMutability": "nonpayable",
      "type": "constructor"
    },
    {
      "anonymous": false,
      "inputs": [
        {
          "indexed": true,
          "internalType": "address",
          "name": "previousOwner",
          "type": "address"
        },
        {
          "indexed": true,
          "internalType": "address",
          "name": "newOwner",
          "type": "address"
        }
      ],
      "name": "OwnershipTransferred",
      "type": "event"
    },
    {
      "anonymous": false,
      "inputs": [
        {
          "indexed": true,
          "internalType": "bytes32",
          "name": "role",
          "type": "bytes32"
        },
        {
          "indexed": true,
          "internalType": "bytes32",
          "name": "previousAdminRole",
          "type": "bytes32"
        },
        {
          "indexed": true,
          "internalType": "bytes32",
          "name": "newAdminRole",
          "type": "bytes32"
        }
      ],
      "name": "RoleAdminChanged",
      "type": "event"
    },
    {
      "anonymous": false,
      "inputs": [
        {
          "indexed": true,
          "internalType": "bytes32",
          "name": "role",
          "type": "bytes32"
        },
        {
          "indexed": true,
          "internalType": "address",
          "name": "account",
          "type": "address"
        },
        {
          "indexed": true,
          "internalType": "address",
          "name": "sender",
          "type": "address"
        }
      ],
      "name": "RoleGranted",
      "type": "event"
    },
    {
      "anonymous": false,
      "inputs": [
        {
          "indexed": true,
          "internalType": "bytes32",
          "name": "role",
          "type": "bytes32"
        },
        {
          "indexed": true,
          "internalType": "address",
          "name": "account",
          "type": "address"
        },
        {
          "indexed": true,
          "internalType": "address",
          "name": "sender",
          "type": "address"
        }
      ],
      "name": "RoleRevoked",
      "type": "event"
    },
    {
      "inputs": [],
      "name": "DEFAULT_ADMIN_ROLE",
      "outputs": [
        {
          "internalType": "bytes32",
          "name": "",
          "type": "bytes32"
        }
      ],
      "stateMutability": "view",
      "type": "function"
    },
    {
      "inputs": [],
      "name": "buyTicket",
      "outputs": [],
      "stateMutability": "payable",
      "type": "function"
    },
    {
      "inputs": [],
      "name": "description",
      "outputs": [
        {
          "internalType": "string",
          "name": "",
          "type": "string"
        }
      ],
      "stateMutability": "view",
      "type": "function"
    },
    {
      "inputs": [],
      "name": "getEventData",
      "outputs": [
        {
          "internalType": "string",
          "name": "",
          "type": "string"
        },
        {
          "internalType": "string",
          "name": "",
          "type": "string"
        },
        {
          "internalType": "uint256",
          "name": "",
          "type": "uint256"
        },
        {
          "internalType": "uint256",
          "name": "",
          "type": "uint256"
        },
        {
          "internalType": "uint256",
          "name": "",
          "type": "uint256"
        }
      ],
      "stateMutability": "view",
      "type": "function"
    },
    {
      "inputs": [
        {
          "internalType": "bytes32",
          "name": "role",
          "type": "bytes32"
        }
      ],
      "name": "getRoleAdmin",
      "outputs": [
        {
          "internalType": "bytes32",
          "name": "",
          "type": "bytes32"
        }
      ],
      "stateMutability": "view",
      "type": "function"
    },
    {
      "inputs": [
        {
          "internalType": "bytes32",
          "name": "role",
          "type": "bytes32"
        },
        {
          "internalType": "address",
          "name": "account",
          "type": "address"
        }
      ],
      "name": "grantRole",
      "outputs": [],
      "stateMutability": "nonpayable",
      "type": "function"
    },
    {
      "inputs": [
        {
          "internalType": "bytes32",
          "name": "role",
          "type": "bytes32"
        },
        {
          "internalType": "address",
          "name": "account",
          "type": "address"
        }
      ],
      "name": "hasRole",
      "outputs": [
        {
          "internalType": "bool",
          "name": "",
          "type": "bool"
        }
      ],
      "stateMutability": "view",
      "type": "function"
    },
    {
      "inputs": [],
      "name": "owner",
      "outputs": [
        {
          "internalType": "address",
          "name": "",
          "type": "address"
        }
      ],
      "stateMutability": "view",
      "type": "function"
    },
    {
      "inputs": [
        {
          "internalType": "address",
          "name": "",
          "type": "address"
        }
      ],
      "name": "participantRsvp",
      "outputs": [
        {
          "internalType": "bool",
          "name": "",
          "type": "bool"
        }
      ],
      "stateMutability": "view",
      "type": "function"
    },
    {
      "inputs": [
        {
          "internalType": "address",
          "name": "",
          "type": "address"
        }
      ],
      "name": "participantToEvent",
      "outputs": [
        {
          "internalType": "bool",
          "name": "",
          "type": "bool"
        }
      ],
      "stateMutability": "view",
      "type": "function"
    },
    {
      "inputs": [],
      "name": "renounceOwnership",
      "outputs": [],
      "stateMutability": "nonpayable",
      "type": "function"
    },
    {
      "inputs": [
        {
          "internalType": "bytes32",
          "name": "role",
          "type": "bytes32"
        },
        {
          "internalType": "address",
          "name": "account",
          "type": "address"
        }
      ],
      "name": "renounceRole",
      "outputs": [],
      "stateMutability": "nonpayable",
      "type": "function"
    },
    {
      "inputs": [
        {
          "internalType": "bytes32",
          "name": "role",
          "type": "bytes32"
        },
        {
          "internalType": "address",
          "name": "account",
          "type": "address"
        }
      ],
      "name": "revokeRole",
      "outputs": [],
      "stateMutability": "nonpayable",
      "type": "function"
    },
    {
      "inputs": [
        {
          "internalType": "address payable",
          "name": "participant",
          "type": "address"
        }
      ],
      "name": "rsvpParticipant",
      "outputs": [],
      "stateMutability": "nonpayable",
      "type": "function"
    },
    {
      "inputs": [
        {
          "internalType": "bytes4",
          "name": "interfaceId",
          "type": "bytes4"
        }
      ],
      "name": "supportsInterface",
      "outputs": [
        {
          "internalType": "bool",
          "name": "",
          "type": "bool"
        }
      ],
      "stateMutability": "view",
      "type": "function"
    },
    {
      "inputs": [],
      "name": "ticket",
      "outputs": [
        {
          "components": [
            {
              "internalType": "uint256",
              "name": "_value",
              "type": "uint256"
            }
          ],
          "internalType": "struct Counters.Counter",
          "name": "sold",
          "type": "tuple"
        },
        {
          "internalType": "uint256",
          "name": "totalTickets",
          "type": "uint256"
        },
        {
          "internalType": "uint256",
          "name": "ticketPrice",
          "type": "uint256"
        }
      ],
      "stateMutability": "view",
      "type": "function"
    },
    {
      "inputs": [],
      "name": "title",
      "outputs": [
        {
          "internalType": "string",
          "name": "",
          "type": "string"
        }
      ],
      "stateMutability": "view",
      "type": "function"
    },
    {
      "inputs": [
        {
          "internalType": "address",
          "name": "newOwner",
          "type": "address"
        }
      ],
      "name": "transferOwnership",
      "outputs": [],
      "stateMutability": "nonpayable",
      "type": "function"
    },
    {
      "inputs": [],
      "name": "withdrawFunds",
      "outputs": [],
      "stateMutability": "nonpayable",
      "type": "function"
    }
  ],
  "bytecode": "0x60806040523480156200001157600080fd5b50604051620028ef380380620028ef83398181016040528101906200003791906200046a565b620000576200004b620000f960201b60201c565b6200010160201b60201c565b84600790805190602001906200006f92919062000307565b5083600890805190602001906200008892919062000307565b506200009362000398565b60405180606001604052808281526020018581526020018481525060026000820151816000016000820151816000015550506020820151816001015560408201518160020155905050620000ed82620001c760201b60201c565b5050505050506200081b565b600033905090565b6000600160009054906101000a900473ffffffffffffffffffffffffffffffffffffffff16905081600160006101000a81548173ffffffffffffffffffffffffffffffffffffffff021916908373ffffffffffffffffffffffffffffffffffffffff1602179055508173ffffffffffffffffffffffffffffffffffffffff168173ffffffffffffffffffffffffffffffffffffffff167f8be0079c531659141344cd1fd0a4f28419497f9722a3daafe3b4186f6b6457e060405160405180910390a35050565b620001d7620000f960201b60201c565b73ffffffffffffffffffffffffffffffffffffffff16620001fd620002dd60201b60201c565b73ffffffffffffffffffffffffffffffffffffffff161462000256576040517f08c379a00000000000000000000000000000000000000000000000000000000081526004016200024d906200058e565b60405180910390fd5b600073ffffffffffffffffffffffffffffffffffffffff168173ffffffffffffffffffffffffffffffffffffffff161415620002c9576040517f08c379a0000000000000000000000000000000000000000000000000000000008152600401620002c0906200056c565b60405180910390fd5b620002da816200010160201b60201c565b50565b6000600160009054906101000a900473ffffffffffffffffffffffffffffffffffffffff16905090565b828054620003159062000694565b90600052602060002090601f01602090048101928262000339576000855562000385565b82601f106200035457805160ff191683800117855562000385565b8280016001018555821562000385579182015b828111156200038457825182559160200191906001019062000367565b5b509050620003949190620003ab565b5090565b6040518060200160405280600081525090565b5b80821115620003c6576000816000905550600101620003ac565b5090565b6000620003e1620003db84620005d9565b620005b0565b905082815260208101848484011115620003fa57600080fd5b620004078482856200065e565b509392505050565b6000815190506200042081620007e7565b92915050565b600082601f8301126200043857600080fd5b81516200044a848260208601620003ca565b91505092915050565b600081519050620004648162000801565b92915050565b600080600080600060a086880312156200048357600080fd5b600086015167ffffffffffffffff8111156200049e57600080fd5b620004ac8882890162000426565b955050602086015167ffffffffffffffff811115620004ca57600080fd5b620004d88882890162000426565b9450506040620004eb8882890162000453565b9350506060620004fe8882890162000453565b925050608062000511888289016200040f565b9150509295509295909350565b60006200052d6026836200060f565b91506200053a826200076f565b604082019050919050565b6000620005546020836200060f565b91506200056182620007be565b602082019050919050565b6000602082019050818103600083015262000587816200051e565b9050919050565b60006020820190508181036000830152620005a98162000545565b9050919050565b6000620005bc620005cf565b9050620005ca8282620006ca565b919050565b6000604051905090565b600067ffffffffffffffff821115620005f757620005f66200072f565b5b62000602826200075e565b9050602081019050919050565b600082825260208201905092915050565b60006200062d8262000634565b9050919050565b600073ffffffffffffffffffffffffffffffffffffffff82169050919050565b6000819050919050565b60005b838110156200067e57808201518184015260208101905062000661565b838111156200068e576000848401525b50505050565b60006002820490506001821680620006ad57607f821691505b60208210811415620006c457620006c362000700565b5b50919050565b620006d5826200075e565b810181811067ffffffffffffffff82111715620006f757620006f66200072f565b5b80604052505050565b7f4e487b7100000000000000000000000000000000000000000000000000000000600052602260045260246000fd5b7f4e487b7100000000000000000000000000000000000000000000000000000000600052604160045260246000fd5b6000601f19601f8301169050919050565b7f4f776e61626c653a206e6577206f776e657220697320746865207a65726f206160008201527f6464726573730000000000000000000000000000000000000000000000000000602082015250565b7f4f776e61626c653a2063616c6c6572206973206e6f7420746865206f776e6572600082015250565b620007f28162000620565b8114620007fe57600080fd5b50565b6200080c8162000654565b81146200081857600080fd5b50565b6120c4806200082b6000396000f3fe6080604052600436106101145760003560e01c8063715018a6116100a0578063bf63556d11610064578063bf63556d14610395578063c44f1de2146103d2578063d547741f146103fb578063edca914c14610424578063f2fde38b1461042e57610114565b8063715018a6146102c05780637284e416146102d75780638da5cb5b1461030257806391d148541461032d578063a217fddf1461036a57610114565b806336568abe116100e757806336568abe146101d35780634a79d50c146101fc57806361ac63eb1461022757806366472f1c146102645780636cc25db71461029357610114565b806301ffc9a71461011957806324600fc314610156578063248a9ca31461016d5780632f2ff15d146101aa575b600080fd5b34801561012557600080fd5b50610140600480360381019061013b91906116b6565b610457565b60405161014d9190611963565b60405180910390f35b34801561016257600080fd5b5061016b6104d1565b005b34801561017957600080fd5b50610194600480360381019061018f9190611651565b61059d565b6040516101a1919061197e565b60405180910390f35b3480156101b657600080fd5b506101d160048036038101906101cc919061167a565b6105bc565b005b3480156101df57600080fd5b506101fa60048036038101906101f5919061167a565b6105e5565b005b34801561020857600080fd5b50610211610668565b60405161021e9190611999565b60405180910390f35b34801561023357600080fd5b5061024e600480360381019061024991906115ff565b6106f6565b60405161025b9190611963565b60405180910390f35b34801561027057600080fd5b50610279610716565b60405161028a9594939291906119bb565b60405180910390f35b34801561029f57600080fd5b506102a8610863565b6040516102b793929190611b1c565b60405180910390f35b3480156102cc57600080fd5b506102d561088f565b005b3480156102e357600080fd5b506102ec610917565b6040516102f99190611999565b60405180910390f35b34801561030e57600080fd5b506103176109a5565b6040516103249190611948565b60405180910390f35b34801561033957600080fd5b50610354600480360381019061034f919061167a565b6109cf565b6040516103619190611963565b60405180910390f35b34801561037657600080fd5b5061037f610a39565b60405161038c919061197e565b60405180910390f35b3480156103a157600080fd5b506103bc60048036038101906103b791906115ff565b610a40565b6040516103c99190611963565b60405180910390f35b3480156103de57600080fd5b506103f960048036038101906103f49190611628565b610a60565b005b34801561040757600080fd5b50610422600480360381019061041d919061167a565b610c42565b005b61042c610c6b565b005b34801561043a57600080fd5b50610455600480360381019061045091906115ff565b610dff565b005b60007f7965db0b000000000000000000000000000000000000000000000000000000007bffffffffffffffffffffffffffffffffffffffffffffffffffffffff1916827bffffffffffffffffffffffffffffffffffffffffffffffffffffffff191614806104ca57506104c982610ef7565b5b9050919050565b6104d9610f61565b73ffffffffffffffffffffffffffffffffffffffff166104f76109a5565b73ffffffffffffffffffffffffffffffffffffffff161461054d576040517f08c379a000000000000000000000000000000000000000000000000000000000815260040161054490611a9c565b60405180910390fd5b6105556109a5565b73ffffffffffffffffffffffffffffffffffffffff166108fc479081150290604051600060405180830381858888f1935050505015801561059a573d6000803e3d6000fd5b50565b6000806000838152602001908152602001600020600101549050919050565b6105c58261059d565b6105d6816105d1610f61565b610f69565b6105e08383611006565b505050565b6105ed610f61565b73ffffffffffffffffffffffffffffffffffffffff168173ffffffffffffffffffffffffffffffffffffffff161461065a576040517f08c379a000000000000000000000000000000000000000000000000000000000815260040161065190611afc565b60405180910390fd5b61066482826110e6565b5050565b6007805461067590611d7c565b80601f01602080910402602001604051908101604052809291908181526020018280546106a190611d7c565b80156106ee5780601f106106c3576101008083540402835291602001916106ee565b820191906000526020600020905b8154815290600101906020018083116106d157829003601f168201915b505050505081565b60056020528060005260406000206000915054906101000a900460ff1681565b60608060008060006007600861072f60026000016111c7565b600260010154600280015484805461074690611d7c565b80601f016020809104026020016040519081016040528092919081815260200182805461077290611d7c565b80156107bf5780601f10610794576101008083540402835291602001916107bf565b820191906000526020600020905b8154815290600101906020018083116107a257829003601f168201915b505050505094508380546107d290611d7c565b80601f01602080910402602001604051908101604052809291908181526020018280546107fe90611d7c565b801561084b5780601f106108205761010080835404028352916020019161084b565b820191906000526020600020905b81548152906001019060200180831161082e57829003601f168201915b50505050509350945094509450945094509091929394565b600280600001604051806020016040529081600082015481525050908060010154908060020154905083565b610897610f61565b73ffffffffffffffffffffffffffffffffffffffff166108b56109a5565b73ffffffffffffffffffffffffffffffffffffffff161461090b576040517f08c379a000000000000000000000000000000000000000000000000000000000815260040161090290611a9c565b60405180910390fd5b61091560006111d5565b565b6008805461092490611d7c565b80601f016020809104026020016040519081016040528092919081815260200182805461095090611d7c565b801561099d5780601f106109725761010080835404028352916020019161099d565b820191906000526020600020905b81548152906001019060200180831161098057829003601f168201915b505050505081565b6000600160009054906101000a900473ffffffffffffffffffffffffffffffffffffffff16905090565b600080600084815260200190815260200160002060000160008373ffffffffffffffffffffffffffffffffffffffff1673ffffffffffffffffffffffffffffffffffffffff16815260200190815260200160002060009054906101000a900460ff16905092915050565b6000801b81565b60066020528060005260406000206000915054906101000a900460ff1681565b610a68610f61565b73ffffffffffffffffffffffffffffffffffffffff16610a866109a5565b73ffffffffffffffffffffffffffffffffffffffff1614610adc576040517f08c379a0000000000000000000000000000000000000000000000000000000008152600401610ad390611a9c565b60405180910390fd5b60011515600560008373ffffffffffffffffffffffffffffffffffffffff1673ffffffffffffffffffffffffffffffffffffffff16815260200190815260200160002060009054906101000a900460ff16151514610b6f576040517f08c379a0000000000000000000000000000000000000000000000000000000008152600401610b6690611a7c565b60405180910390fd5b6001600660008373ffffffffffffffffffffffffffffffffffffffff1673ffffffffffffffffffffffffffffffffffffffff16815260200190815260200160002060006101000a81548160ff0219169083151502179055506000600160646002800154610bdc9190611bd0565b610be69190611c01565b6002800154610bf59190611c5b565b90508173ffffffffffffffffffffffffffffffffffffffff166108fc829081150290604051600060405180830381858888f19350505050158015610c3d573d6000803e3d6000fd5b505050565b610c4b8261059d565b610c5c81610c57610f61565b610f69565b610c6683836110e6565b505050565b600260010154610c7e60026000016111c7565b10610cbe576040517f08c379a0000000000000000000000000000000000000000000000000000000008152600401610cb590611a3c565b60405180910390fd5b60028001543414610d04576040517f08c379a0000000000000000000000000000000000000000000000000000000008152600401610cfb90611abc565b60405180910390fd5b60011515600560003373ffffffffffffffffffffffffffffffffffffffff1673ffffffffffffffffffffffffffffffffffffffff16815260200190815260200160002060009054906101000a900460ff1615151415610d98576040517f08c379a0000000000000000000000000000000000000000000000000000000008152600401610d8f90611adc565b60405180910390fd5b6001600560003373ffffffffffffffffffffffffffffffffffffffff1673ffffffffffffffffffffffffffffffffffffffff16815260200190815260200160002060006101000a81548160ff021916908315150217905550610dfd600260000161129b565b565b610e07610f61565b73ffffffffffffffffffffffffffffffffffffffff16610e256109a5565b73ffffffffffffffffffffffffffffffffffffffff1614610e7b576040517f08c379a0000000000000000000000000000000000000000000000000000000008152600401610e7290611a9c565b60405180910390fd5b600073ffffffffffffffffffffffffffffffffffffffff168173ffffffffffffffffffffffffffffffffffffffff161415610eeb576040517f08c379a0000000000000000000000000000000000000000000000000000000008152600401610ee290611a5c565b60405180910390fd5b610ef4816111d5565b50565b60007f01ffc9a7000000000000000000000000000000000000000000000000000000007bffffffffffffffffffffffffffffffffffffffffffffffffffffffff1916827bffffffffffffffffffffffffffffffffffffffffffffffffffffffff1916149050919050565b600033905090565b610f7382826109cf565b61100257610f988173ffffffffffffffffffffffffffffffffffffffff1660146112b1565b610fa68360001c60206112b1565b604051602001610fb792919061190e565b6040516020818303038152906040526040517f08c379a0000000000000000000000000000000000000000000000000000000008152600401610ff99190611999565b60405180910390fd5b5050565b61101082826109cf565b6110e257600160008084815260200190815260200160002060000160008373ffffffffffffffffffffffffffffffffffffffff1673ffffffffffffffffffffffffffffffffffffffff16815260200190815260200160002060006101000a81548160ff021916908315150217905550611087610f61565b73ffffffffffffffffffffffffffffffffffffffff168173ffffffffffffffffffffffffffffffffffffffff16837f2f8788117e7eff1d82e926ec794901d17c78024a50270940304540a733656f0d60405160405180910390a45b5050565b6110f082826109cf565b156111c357600080600084815260200190815260200160002060000160008373ffffffffffffffffffffffffffffffffffffffff1673ffffffffffffffffffffffffffffffffffffffff16815260200190815260200160002060006101000a81548160ff021916908315150217905550611168610f61565b73ffffffffffffffffffffffffffffffffffffffff168173ffffffffffffffffffffffffffffffffffffffff16837ff6391f5c32d9c69d2a47ea670b442974b53935d1edc7fd64eb21e047a839171b60405160405180910390a45b5050565b600081600001549050919050565b6000600160009054906101000a900473ffffffffffffffffffffffffffffffffffffffff16905081600160006101000a81548173ffffffffffffffffffffffffffffffffffffffff021916908373ffffffffffffffffffffffffffffffffffffffff1602179055508173ffffffffffffffffffffffffffffffffffffffff168173ffffffffffffffffffffffffffffffffffffffff167f8be0079c531659141344cd1fd0a4f28419497f9722a3daafe3b4186f6b6457e060405160405180910390a35050565b6001816000016000828254019250508190555050565b6060600060028360026112c49190611c01565b6112ce9190611b7a565b67ffffffffffffffff81111561130d577f4e487b7100000000000000000000000000000000000000000000000000000000600052604160045260246000fd5b6040519080825280601f01601f19166020018201604052801561133f5781602001600182028036833780820191505090505b5090507f30000000000000000000000000000000000000000000000000000000000000008160008151811061139d577f4e487b7100000000000000000000000000000000000000000000000000000000600052603260045260246000fd5b60200101907effffffffffffffffffffffffffffffffffffffffffffffffffffffffffffff1916908160001a9053507f780000000000000000000000000000000000000000000000000000000000000081600181518110611427577f4e487b7100000000000000000000000000000000000000000000000000000000600052603260045260246000fd5b60200101907effffffffffffffffffffffffffffffffffffffffffffffffffffffffffffff1916908160001a905350600060018460026114679190611c01565b6114719190611b7a565b90505b600181111561155d577f3031323334353637383961626364656600000000000000000000000000000000600f8616601081106114d9577f4e487b7100000000000000000000000000000000000000000000000000000000600052603260045260246000fd5b1a60f81b828281518110611516577f4e487b7100000000000000000000000000000000000000000000000000000000600052603260045260246000fd5b60200101907effffffffffffffffffffffffffffffffffffffffffffffffffffffffffffff1916908160001a905350600485901c94508061155690611d52565b9050611474565b50600084146115a1576040517f08c379a000000000000000000000000000000000000000000000000000000000815260040161159890611a1c565b60405180910390fd5b8091505092915050565b6000813590506115ba81612032565b92915050565b6000813590506115cf81612049565b92915050565b6000813590506115e481612060565b92915050565b6000813590506115f981612077565b92915050565b60006020828403121561161157600080fd5b600061161f848285016115ab565b91505092915050565b60006020828403121561163a57600080fd5b6000611648848285016115c0565b91505092915050565b60006020828403121561166357600080fd5b6000611671848285016115d5565b91505092915050565b6000806040838503121561168d57600080fd5b600061169b858286016115d5565b92505060206116ac858286016115ab565b9150509250929050565b6000602082840312156116c857600080fd5b60006116d6848285016115ea565b91505092915050565b6116e881611c8f565b82525050565b6116f781611cb3565b82525050565b61170681611cbf565b82525050565b600061171782611b53565b6117218185611b5e565b9350611731818560208601611d1f565b61173a81611e3b565b840191505092915050565b600061175082611b53565b61175a8185611b6f565b935061176a818560208601611d1f565b80840191505092915050565b6000611783602083611b5e565b915061178e82611e4c565b602082019050919050565b60006117a6600f83611b5e565b91506117b182611e75565b602082019050919050565b60006117c9602683611b5e565b91506117d482611e9e565b604082019050919050565b60006117ec601b83611b5e565b91506117f782611eed565b602082019050919050565b600061180f602083611b5e565b915061181a82611f16565b602082019050919050565b6000611832601883611b5e565b915061183d82611f3f565b602082019050919050565b6000611855601783611b6f565b915061186082611f68565b601782019050919050565b6000611878601f83611b5e565b915061188382611f91565b602082019050919050565b600061189b601183611b6f565b91506118a682611fba565b601182019050919050565b60006118be602f83611b5e565b91506118c982611fe3565b604082019050919050565b6020820160008201516118ea60008501826118f0565b50505050565b6118f981611d15565b82525050565b61190881611d15565b82525050565b600061191982611848565b91506119258285611745565b91506119308261188e565b915061193c8284611745565b91508190509392505050565b600060208201905061195d60008301846116df565b92915050565b600060208201905061197860008301846116ee565b92915050565b600060208201905061199360008301846116fd565b92915050565b600060208201905081810360008301526119b3818461170c565b905092915050565b600060a08201905081810360008301526119d5818861170c565b905081810360208301526119e9818761170c565b90506119f860408301866118ff565b611a0560608301856118ff565b611a1260808301846118ff565b9695505050505050565b60006020820190508181036000830152611a3581611776565b9050919050565b60006020820190508181036000830152611a5581611799565b9050919050565b60006020820190508181036000830152611a75816117bc565b9050919050565b60006020820190508181036000830152611a95816117df565b9050919050565b60006020820190508181036000830152611ab581611802565b9050919050565b60006020820190508181036000830152611ad581611825565b9050919050565b60006020820190508181036000830152611af58161186b565b9050919050565b60006020820190508181036000830152611b15816118b1565b9050919050565b6000606082019050611b3160008301866118d4565b611b3e60208301856118ff565b611b4b60408301846118ff565b949350505050565b600081519050919050565b600082825260208201905092915050565b600081905092915050565b6000611b8582611d15565b9150611b9083611d15565b9250827fffffffffffffffffffffffffffffffffffffffffffffffffffffffffffffffff03821115611bc557611bc4611dae565b5b828201905092915050565b6000611bdb82611d15565b9150611be683611d15565b925082611bf657611bf5611ddd565b5b828204905092915050565b6000611c0c82611d15565b9150611c1783611d15565b9250817fffffffffffffffffffffffffffffffffffffffffffffffffffffffffffffffff0483118215151615611c5057611c4f611dae565b5b828202905092915050565b6000611c6682611d15565b9150611c7183611d15565b925082821015611c8457611c83611dae565b5b828203905092915050565b6000611c9a82611cf5565b9050919050565b6000611cac82611cf5565b9050919050565b60008115159050919050565b6000819050919050565b60007fffffffff0000000000000000000000000000000000000000000000000000000082169050919050565b600073ffffffffffffffffffffffffffffffffffffffff82169050919050565b6000819050919050565b60005b83811015611d3d578082015181840152602081019050611d22565b83811115611d4c576000848401525b50505050565b6000611d5d82611d15565b91506000821415611d7157611d70611dae565b5b600182039050919050565b60006002820490506001821680611d9457607f821691505b60208210811415611da857611da7611e0c565b5b50919050565b7f4e487b7100000000000000000000000000000000000000000000000000000000600052601160045260246000fd5b7f4e487b7100000000000000000000000000000000000000000000000000000000600052601260045260246000fd5b7f4e487b7100000000000000000000000000000000000000000000000000000000600052602260045260246000fd5b6000601f19601f8301169050919050565b7f537472696e67733a20686578206c656e67746820696e73756666696369656e74600082015250565b7f4576656e7420736f6c64206f75742e0000000000000000000000000000000000600082015250565b7f4f776e61626c653a206e6577206f776e657220697320746865207a65726f206160008201527f6464726573730000000000000000000000000000000000000000000000000000602082015250565b7f5061727469636970616e74206e6f7420726567697374657265642e0000000000600082015250565b7f4f776e61626c653a2063616c6c6572206973206e6f7420746865206f776e6572600082015250565b7f496e73756666696369656e742065746865722073656e742e0000000000000000600082015250565b7f416363657373436f6e74726f6c3a206163636f756e7420000000000000000000600082015250565b7f5061727469636970616e7420616c726561647920726567697374657265642e00600082015250565b7f206973206d697373696e6720726f6c6520000000000000000000000000000000600082015250565b7f416363657373436f6e74726f6c3a2063616e206f6e6c792072656e6f756e636560008201527f20726f6c657320666f722073656c660000000000000000000000000000000000602082015250565b61203b81611c8f565b811461204657600080fd5b50565b61205281611ca1565b811461205d57600080fd5b50565b61206981611cbf565b811461207457600080fd5b50565b61208081611cc9565b811461208b57600080fd5b5056fea26469706673582212202a3ac95642c523237476f4624af658631565a551834212b5f05d805415f90dfc64736f6c63430008040033",
  "linkReferences": {},
  "deployedLinkReferences": {}
}