{
  "_format": "hh-sol-artifact-1",
  "contractName": "Event",
  "sourceName": "contracts/Event.sol",
  "abi": [
    {
      "inputs": [
        {
          "internalType": "string",
          "name": "eventTitle",
          "type": "string"
        },
        {
          "internalType": "string",
          "name": "eventDescription",
          "type": "string"
        },
        {
          "internalType": "uint256",
          "name": "availableTickets",
          "type": "uint256"
        },
        {
          "internalType": "uint256",
          "name": "price",
          "type": "uint256"
        },
        {
          "internalType": "address",
          "name": "owner",
          "type": "address"
        }
      ],
      "stateMutability": "nonpayable",
      "type": "constructor"
    },
    {
      "anonymous": false,
      "inputs": [
        {
          "indexed": true,
          "internalType": "address",
          "name": "previousOwner",
          "type": "address"
        },
        {
          "indexed": true,
          "internalType": "address",
          "name": "newOwner",
          "type": "address"
        }
      ],
      "name": "OwnershipTransferred",
      "type": "event"
    },
    {
      "anonymous": false,
      "inputs": [
        {
          "indexed": true,
          "internalType": "bytes32",
          "name": "role",
          "type": "bytes32"
        },
        {
          "indexed": true,
          "internalType": "bytes32",
          "name": "previousAdminRole",
          "type": "bytes32"
        },
        {
          "indexed": true,
          "internalType": "bytes32",
          "name": "newAdminRole",
          "type": "bytes32"
        }
      ],
      "name": "RoleAdminChanged",
      "type": "event"
    },
    {
      "anonymous": false,
      "inputs": [
        {
          "indexed": true,
          "internalType": "bytes32",
          "name": "role",
          "type": "bytes32"
        },
        {
          "indexed": true,
          "internalType": "address",
          "name": "account",
          "type": "address"
        },
        {
          "indexed": true,
          "internalType": "address",
          "name": "sender",
          "type": "address"
        }
      ],
      "name": "RoleGranted",
      "type": "event"
    },
    {
      "anonymous": false,
      "inputs": [
        {
          "indexed": true,
          "internalType": "bytes32",
          "name": "role",
          "type": "bytes32"
        },
        {
          "indexed": true,
          "internalType": "address",
          "name": "account",
          "type": "address"
        },
        {
          "indexed": true,
          "internalType": "address",
          "name": "sender",
          "type": "address"
        }
      ],
      "name": "RoleRevoked",
      "type": "event"
    },
    {
      "inputs": [],
      "name": "DEFAULT_ADMIN_ROLE",
      "outputs": [
        {
          "internalType": "bytes32",
          "name": "",
          "type": "bytes32"
        }
      ],
      "stateMutability": "view",
      "type": "function"
    },
    {
      "inputs": [],
      "name": "MANAGER_ROLE",
      "outputs": [
        {
          "internalType": "bytes32",
          "name": "",
          "type": "bytes32"
        }
      ],
      "stateMutability": "view",
      "type": "function"
    },
    {
      "inputs": [
        {
          "internalType": "address",
          "name": "manager",
          "type": "address"
        }
      ],
      "name": "addManager",
      "outputs": [],
      "stateMutability": "nonpayable",
      "type": "function"
    },
    {
      "inputs": [],
      "name": "buyTicket",
      "outputs": [],
      "stateMutability": "payable",
      "type": "function"
    },
    {
      "inputs": [],
      "name": "description",
      "outputs": [
        {
          "internalType": "string",
          "name": "",
          "type": "string"
        }
      ],
      "stateMutability": "view",
      "type": "function"
    },
    {
      "inputs": [],
      "name": "getEventData",
      "outputs": [
        {
          "internalType": "string",
          "name": "",
          "type": "string"
        },
        {
          "internalType": "string",
          "name": "",
          "type": "string"
        },
        {
          "internalType": "uint256",
          "name": "",
          "type": "uint256"
        },
        {
          "internalType": "uint256",
          "name": "",
          "type": "uint256"
        },
        {
          "internalType": "uint256",
          "name": "",
          "type": "uint256"
        }
      ],
      "stateMutability": "view",
      "type": "function"
    },
    {
      "inputs": [
        {
          "internalType": "bytes32",
          "name": "role",
          "type": "bytes32"
        }
      ],
      "name": "getRoleAdmin",
      "outputs": [
        {
          "internalType": "bytes32",
          "name": "",
          "type": "bytes32"
        }
      ],
      "stateMutability": "view",
      "type": "function"
    },
    {
      "inputs": [
        {
          "internalType": "bytes32",
          "name": "role",
          "type": "bytes32"
        },
        {
          "internalType": "address",
          "name": "account",
          "type": "address"
        }
      ],
      "name": "grantRole",
      "outputs": [],
      "stateMutability": "nonpayable",
      "type": "function"
    },
    {
      "inputs": [
        {
          "internalType": "bytes32",
          "name": "role",
          "type": "bytes32"
        },
        {
          "internalType": "address",
          "name": "account",
          "type": "address"
        }
      ],
      "name": "hasRole",
      "outputs": [
        {
          "internalType": "bool",
          "name": "",
          "type": "bool"
        }
      ],
      "stateMutability": "view",
      "type": "function"
    },
    {
      "inputs": [],
      "name": "owner",
      "outputs": [
        {
          "internalType": "address",
          "name": "",
          "type": "address"
        }
      ],
      "stateMutability": "view",
      "type": "function"
    },
    {
      "inputs": [
        {
          "internalType": "address",
          "name": "",
          "type": "address"
        }
      ],
      "name": "participantRsvp",
      "outputs": [
        {
          "internalType": "bool",
          "name": "",
          "type": "bool"
        }
      ],
      "stateMutability": "view",
      "type": "function"
    },
    {
      "inputs": [
        {
          "internalType": "address",
          "name": "",
          "type": "address"
        }
      ],
      "name": "participantToEvent",
      "outputs": [
        {
          "internalType": "bool",
          "name": "",
          "type": "bool"
        }
      ],
      "stateMutability": "view",
      "type": "function"
    },
    {
      "inputs": [],
      "name": "renounceOwnership",
      "outputs": [],
      "stateMutability": "nonpayable",
      "type": "function"
    },
    {
      "inputs": [
        {
          "internalType": "bytes32",
          "name": "role",
          "type": "bytes32"
        },
        {
          "internalType": "address",
          "name": "account",
          "type": "address"
        }
      ],
      "name": "renounceRole",
      "outputs": [],
      "stateMutability": "nonpayable",
      "type": "function"
    },
    {
      "inputs": [
        {
          "internalType": "bytes32",
          "name": "role",
          "type": "bytes32"
        },
        {
          "internalType": "address",
          "name": "account",
          "type": "address"
        }
      ],
      "name": "revokeRole",
      "outputs": [],
      "stateMutability": "nonpayable",
      "type": "function"
    },
    {
      "inputs": [
        {
          "internalType": "address payable",
          "name": "participant",
          "type": "address"
        }
      ],
      "name": "rsvpParticipant",
      "outputs": [],
      "stateMutability": "nonpayable",
      "type": "function"
    },
    {
      "inputs": [
        {
          "internalType": "bytes4",
          "name": "interfaceId",
          "type": "bytes4"
        }
      ],
      "name": "supportsInterface",
      "outputs": [
        {
          "internalType": "bool",
          "name": "",
          "type": "bool"
        }
      ],
      "stateMutability": "view",
      "type": "function"
    },
    {
      "inputs": [],
      "name": "ticket",
      "outputs": [
        {
          "components": [
            {
              "internalType": "uint256",
              "name": "_value",
              "type": "uint256"
            }
          ],
          "internalType": "struct Counters.Counter",
          "name": "sold",
          "type": "tuple"
        },
        {
          "internalType": "uint256",
          "name": "totalTickets",
          "type": "uint256"
        },
        {
          "internalType": "uint256",
          "name": "ticketPrice",
          "type": "uint256"
        }
      ],
      "stateMutability": "view",
      "type": "function"
    },
    {
      "inputs": [],
      "name": "title",
      "outputs": [
        {
          "internalType": "string",
          "name": "",
          "type": "string"
        }
      ],
      "stateMutability": "view",
      "type": "function"
    },
    {
      "inputs": [
        {
          "internalType": "address",
          "name": "newOwner",
          "type": "address"
        }
      ],
      "name": "transferOwnership",
      "outputs": [],
      "stateMutability": "nonpayable",
      "type": "function"
    },
    {
      "inputs": [],
      "name": "withdrawFunds",
      "outputs": [],
      "stateMutability": "nonpayable",
      "type": "function"
    }
  ],
  "bytecode": "0x60806040523480156200001157600080fd5b5060405162002c2138038062002c2183398181016040528101906200003791906200060d565b620000576200004b6200012b60201b60201c565b6200013360201b60201c565b84600790805190602001906200006f929190620004aa565b50836008908051906020019062000088929190620004aa565b50620000936200053b565b60405180606001604052808281526020018581526020018481525060026000820151816000016000820151816000015550506020820151816001015560408201518160020155905050620000ed82620001f960201b60201c565b6200011f7faf290d8680820aad922855f39b306097b20e28774d6c1ad35a20325630c3a02c336200030f60201b60201c565b505050505050620009be565b600033905090565b6000600160009054906101000a900473ffffffffffffffffffffffffffffffffffffffff16905081600160006101000a81548173ffffffffffffffffffffffffffffffffffffffff021916908373ffffffffffffffffffffffffffffffffffffffff1602179055508173ffffffffffffffffffffffffffffffffffffffff168173ffffffffffffffffffffffffffffffffffffffff167f8be0079c531659141344cd1fd0a4f28419497f9722a3daafe3b4186f6b6457e060405160405180910390a35050565b620002096200012b60201b60201c565b73ffffffffffffffffffffffffffffffffffffffff166200022f6200032560201b60201c565b73ffffffffffffffffffffffffffffffffffffffff161462000288576040517f08c379a00000000000000000000000000000000000000000000000000000000081526004016200027f9062000731565b60405180910390fd5b600073ffffffffffffffffffffffffffffffffffffffff168173ffffffffffffffffffffffffffffffffffffffff161415620002fb576040517f08c379a0000000000000000000000000000000000000000000000000000000008152600401620002f2906200070f565b60405180910390fd5b6200030c816200013360201b60201c565b50565b6200032182826200034f60201b60201c565b5050565b6000600160009054906101000a900473ffffffffffffffffffffffffffffffffffffffff16905090565b6200036182826200044060201b60201c565b6200043c57600160008084815260200190815260200160002060000160008373ffffffffffffffffffffffffffffffffffffffff1673ffffffffffffffffffffffffffffffffffffffff16815260200190815260200160002060006101000a81548160ff021916908315150217905550620003e16200012b60201b60201c565b73ffffffffffffffffffffffffffffffffffffffff168173ffffffffffffffffffffffffffffffffffffffff16837f2f8788117e7eff1d82e926ec794901d17c78024a50270940304540a733656f0d60405160405180910390a45b5050565b600080600084815260200190815260200160002060000160008373ffffffffffffffffffffffffffffffffffffffff1673ffffffffffffffffffffffffffffffffffffffff16815260200190815260200160002060009054906101000a900460ff16905092915050565b828054620004b89062000837565b90600052602060002090601f016020900481019282620004dc576000855562000528565b82601f10620004f757805160ff191683800117855562000528565b8280016001018555821562000528579182015b82811115620005275782518255916020019190600101906200050a565b5b5090506200053791906200054e565b5090565b6040518060200160405280600081525090565b5b80821115620005695760008160009055506001016200054f565b5090565b6000620005846200057e846200077c565b62000753565b9050828152602081018484840111156200059d57600080fd5b620005aa84828562000801565b509392505050565b600081519050620005c3816200098a565b92915050565b600082601f830112620005db57600080fd5b8151620005ed8482602086016200056d565b91505092915050565b6000815190506200060781620009a4565b92915050565b600080600080600060a086880312156200062657600080fd5b600086015167ffffffffffffffff8111156200064157600080fd5b6200064f88828901620005c9565b955050602086015167ffffffffffffffff8111156200066d57600080fd5b6200067b88828901620005c9565b94505060406200068e88828901620005f6565b9350506060620006a188828901620005f6565b9250506080620006b488828901620005b2565b9150509295509295909350565b6000620006d0602683620007b2565b9150620006dd8262000912565b604082019050919050565b6000620006f7602083620007b2565b9150620007048262000961565b602082019050919050565b600060208201905081810360008301526200072a81620006c1565b9050919050565b600060208201905081810360008301526200074c81620006e8565b9050919050565b60006200075f62000772565b90506200076d82826200086d565b919050565b6000604051905090565b600067ffffffffffffffff8211156200079a5762000799620008d2565b5b620007a58262000901565b9050602081019050919050565b600082825260208201905092915050565b6000620007d082620007d7565b9050919050565b600073ffffffffffffffffffffffffffffffffffffffff82169050919050565b6000819050919050565b60005b838110156200082157808201518184015260208101905062000804565b8381111562000831576000848401525b50505050565b600060028204905060018216806200085057607f821691505b60208210811415620008675762000866620008a3565b5b50919050565b620008788262000901565b810181811067ffffffffffffffff821117156200089a5762000899620008d2565b5b80604052505050565b7f4e487b7100000000000000000000000000000000000000000000000000000000600052602260045260246000fd5b7f4e487b7100000000000000000000000000000000000000000000000000000000600052604160045260246000fd5b6000601f19601f8301169050919050565b7f4f776e61626c653a206e6577206f776e657220697320746865207a65726f206160008201527f6464726573730000000000000000000000000000000000000000000000000000602082015250565b7f4f776e61626c653a2063616c6c6572206973206e6f7420746865206f776e6572600082015250565b6200099581620007c3565b8114620009a157600080fd5b50565b620009af81620007f7565b8114620009bb57600080fd5b50565b61225380620009ce6000396000f3fe60806040526004361061012a5760003560e01c8063715018a6116100ab578063bf63556d1161006f578063bf63556d146103d4578063c44f1de214610411578063d547741f1461043a578063ec87621c14610463578063edca914c1461048e578063f2fde38b146104985761012a565b8063715018a6146102ff5780637284e416146103165780638da5cb5b1461034157806391d148541461036c578063a217fddf146103a95761012a565b806336568abe116100f257806336568abe146102125780634a79d50c1461023b57806361ac63eb1461026657806366472f1c146102a35780636cc25db7146102d25761012a565b806301ffc9a71461012f57806324600fc31461016c578063248a9ca3146101835780632d06177a146101c05780632f2ff15d146101e9575b600080fd5b34801561013b57600080fd5b50610156600480360381019061015191906117d9565b6104c1565b6040516101639190611aa9565b60405180910390f35b34801561017857600080fd5b5061018161053b565b005b34801561018f57600080fd5b506101aa60048036038101906101a59190611774565b610607565b6040516101b79190611ac4565b60405180910390f35b3480156101cc57600080fd5b506101e760048036038101906101e29190611722565b610626565b005b3480156101f557600080fd5b50610210600480360381019061020b919061179d565b6106be565b005b34801561021e57600080fd5b506102396004803603810190610234919061179d565b6106e7565b005b34801561024757600080fd5b5061025061076a565b60405161025d9190611adf565b60405180910390f35b34801561027257600080fd5b5061028d60048036038101906102889190611722565b6107f8565b60405161029a9190611aa9565b60405180910390f35b3480156102af57600080fd5b506102b8610818565b6040516102c9959493929190611b01565b60405180910390f35b3480156102de57600080fd5b506102e7610965565b6040516102f693929190611c82565b60405180910390f35b34801561030b57600080fd5b50610314610991565b005b34801561032257600080fd5b5061032b610a19565b6040516103389190611adf565b60405180910390f35b34801561034d57600080fd5b50610356610aa7565b6040516103639190611a8e565b60405180910390f35b34801561037857600080fd5b50610393600480360381019061038e919061179d565b610ad1565b6040516103a09190611aa9565b60405180910390f35b3480156103b557600080fd5b506103be610b3b565b6040516103cb9190611ac4565b60405180910390f35b3480156103e057600080fd5b506103fb60048036038101906103f69190611722565b610b42565b6040516104089190611aa9565b60405180910390f35b34801561041d57600080fd5b506104386004803603810190610433919061174b565b610b62565b005b34801561044657600080fd5b50610461600480360381019061045c919061179d565b610d33565b005b34801561046f57600080fd5b50610478610d5c565b6040516104859190611ac4565b60405180910390f35b610496610d80565b005b3480156104a457600080fd5b506104bf60048036038101906104ba9190611722565b610f14565b005b60007f7965db0b000000000000000000000000000000000000000000000000000000007bffffffffffffffffffffffffffffffffffffffffffffffffffffffff1916827bffffffffffffffffffffffffffffffffffffffffffffffffffffffff1916148061053457506105338261100c565b5b9050919050565b610543611076565b73ffffffffffffffffffffffffffffffffffffffff16610561610aa7565b73ffffffffffffffffffffffffffffffffffffffff16146105b7576040517f08c379a00000000000000000000000000000000000000000000000000000000081526004016105ae90611be2565b60405180910390fd5b6105bf610aa7565b73ffffffffffffffffffffffffffffffffffffffff166108fc479081150290604051600060405180830381858888f19350505050158015610604573d6000803e3d6000fd5b50565b6000806000838152602001908152602001600020600101549050919050565b336106517faf290d8680820aad922855f39b306097b20e28774d6c1ad35a20325630c3a02c33610ad1565b610690576040517f08c379a000000000000000000000000000000000000000000000000000000000815260040161068790611c02565b60405180910390fd5b6106ba7faf290d8680820aad922855f39b306097b20e28774d6c1ad35a20325630c3a02c8361107e565b5050565b6106c782610607565b6106d8816106d3611076565b61108c565b6106e28383611129565b505050565b6106ef611076565b73ffffffffffffffffffffffffffffffffffffffff168173ffffffffffffffffffffffffffffffffffffffff161461075c576040517f08c379a000000000000000000000000000000000000000000000000000000000815260040161075390611c62565b60405180910390fd5b6107668282611209565b5050565b6007805461077790611ee2565b80601f01602080910402602001604051908101604052809291908181526020018280546107a390611ee2565b80156107f05780601f106107c5576101008083540402835291602001916107f0565b820191906000526020600020905b8154815290600101906020018083116107d357829003601f168201915b505050505081565b60056020528060005260406000206000915054906101000a900460ff1681565b60608060008060006007600861083160026000016112ea565b600260010154600280015484805461084890611ee2565b80601f016020809104026020016040519081016040528092919081815260200182805461087490611ee2565b80156108c15780601f10610896576101008083540402835291602001916108c1565b820191906000526020600020905b8154815290600101906020018083116108a457829003601f168201915b505050505094508380546108d490611ee2565b80601f016020809104026020016040519081016040528092919081815260200182805461090090611ee2565b801561094d5780601f106109225761010080835404028352916020019161094d565b820191906000526020600020905b81548152906001019060200180831161093057829003601f168201915b50505050509350945094509450945094509091929394565b600280600001604051806020016040529081600082015481525050908060010154908060020154905083565b610999611076565b73ffffffffffffffffffffffffffffffffffffffff166109b7610aa7565b73ffffffffffffffffffffffffffffffffffffffff1614610a0d576040517f08c379a0000000000000000000000000000000000000000000000000000000008152600401610a0490611be2565b60405180910390fd5b610a1760006112f8565b565b60088054610a2690611ee2565b80601f0160208091040260200160405190810160405280929190818152602001828054610a5290611ee2565b8015610a9f5780601f10610a7457610100808354040283529160200191610a9f565b820191906000526020600020905b815481529060010190602001808311610a8257829003601f168201915b505050505081565b6000600160009054906101000a900473ffffffffffffffffffffffffffffffffffffffff16905090565b600080600084815260200190815260200160002060000160008373ffffffffffffffffffffffffffffffffffffffff1673ffffffffffffffffffffffffffffffffffffffff16815260200190815260200160002060009054906101000a900460ff16905092915050565b6000801b81565b60066020528060005260406000206000915054906101000a900460ff1681565b33610b8d7faf290d8680820aad922855f39b306097b20e28774d6c1ad35a20325630c3a02c33610ad1565b610bcc576040517f08c379a0000000000000000000000000000000000000000000000000000000008152600401610bc390611c02565b60405180910390fd5b60011515600560008473ffffffffffffffffffffffffffffffffffffffff1673ffffffffffffffffffffffffffffffffffffffff16815260200190815260200160002060009054906101000a900460ff16151514610c5f576040517f08c379a0000000000000000000000000000000000000000000000000000000008152600401610c5690611bc2565b60405180910390fd5b6001600660008473ffffffffffffffffffffffffffffffffffffffff1673ffffffffffffffffffffffffffffffffffffffff16815260200190815260200160002060006101000a81548160ff0219169083151502179055506000600160646002800154610ccc9190611d36565b610cd69190611d67565b6002800154610ce59190611dc1565b90508273ffffffffffffffffffffffffffffffffffffffff166108fc829081150290604051600060405180830381858888f19350505050158015610d2d573d6000803e3d6000fd5b50505050565b610d3c82610607565b610d4d81610d48611076565b61108c565b610d578383611209565b505050565b7faf290d8680820aad922855f39b306097b20e28774d6c1ad35a20325630c3a02c81565b600260010154610d9360026000016112ea565b10610dd3576040517f08c379a0000000000000000000000000000000000000000000000000000000008152600401610dca90611b82565b60405180910390fd5b60028001543414610e19576040517f08c379a0000000000000000000000000000000000000000000000000000000008152600401610e1090611c22565b60405180910390fd5b60011515600560003373ffffffffffffffffffffffffffffffffffffffff1673ffffffffffffffffffffffffffffffffffffffff16815260200190815260200160002060009054906101000a900460ff1615151415610ead576040517f08c379a0000000000000000000000000000000000000000000000000000000008152600401610ea490611c42565b60405180910390fd5b6001600560003373ffffffffffffffffffffffffffffffffffffffff1673ffffffffffffffffffffffffffffffffffffffff16815260200190815260200160002060006101000a81548160ff021916908315150217905550610f1260026000016113be565b565b610f1c611076565b73ffffffffffffffffffffffffffffffffffffffff16610f3a610aa7565b73ffffffffffffffffffffffffffffffffffffffff1614610f90576040517f08c379a0000000000000000000000000000000000000000000000000000000008152600401610f8790611be2565b60405180910390fd5b600073ffffffffffffffffffffffffffffffffffffffff168173ffffffffffffffffffffffffffffffffffffffff161415611000576040517f08c379a0000000000000000000000000000000000000000000000000000000008152600401610ff790611ba2565b60405180910390fd5b611009816112f8565b50565b60007f01ffc9a7000000000000000000000000000000000000000000000000000000007bffffffffffffffffffffffffffffffffffffffffffffffffffffffff1916827bffffffffffffffffffffffffffffffffffffffffffffffffffffffff1916149050919050565b600033905090565b6110888282611129565b5050565b6110968282610ad1565b611125576110bb8173ffffffffffffffffffffffffffffffffffffffff1660146113d4565b6110c98360001c60206113d4565b6040516020016110da929190611a54565b6040516020818303038152906040526040517f08c379a000000000000000000000000000000000000000000000000000000000815260040161111c9190611adf565b60405180910390fd5b5050565b6111338282610ad1565b61120557600160008084815260200190815260200160002060000160008373ffffffffffffffffffffffffffffffffffffffff1673ffffffffffffffffffffffffffffffffffffffff16815260200190815260200160002060006101000a81548160ff0219169083151502179055506111aa611076565b73ffffffffffffffffffffffffffffffffffffffff168173ffffffffffffffffffffffffffffffffffffffff16837f2f8788117e7eff1d82e926ec794901d17c78024a50270940304540a733656f0d60405160405180910390a45b5050565b6112138282610ad1565b156112e657600080600084815260200190815260200160002060000160008373ffffffffffffffffffffffffffffffffffffffff1673ffffffffffffffffffffffffffffffffffffffff16815260200190815260200160002060006101000a81548160ff02191690831515021790555061128b611076565b73ffffffffffffffffffffffffffffffffffffffff168173ffffffffffffffffffffffffffffffffffffffff16837ff6391f5c32d9c69d2a47ea670b442974b53935d1edc7fd64eb21e047a839171b60405160405180910390a45b5050565b600081600001549050919050565b6000600160009054906101000a900473ffffffffffffffffffffffffffffffffffffffff16905081600160006101000a81548173ffffffffffffffffffffffffffffffffffffffff021916908373ffffffffffffffffffffffffffffffffffffffff1602179055508173ffffffffffffffffffffffffffffffffffffffff168173ffffffffffffffffffffffffffffffffffffffff167f8be0079c531659141344cd1fd0a4f28419497f9722a3daafe3b4186f6b6457e060405160405180910390a35050565b6001816000016000828254019250508190555050565b6060600060028360026113e79190611d67565b6113f19190611ce0565b67ffffffffffffffff811115611430577f4e487b7100000000000000000000000000000000000000000000000000000000600052604160045260246000fd5b6040519080825280601f01601f1916602001820160405280156114625781602001600182028036833780820191505090505b5090507f3000000000000000000000000000000000000000000000000000000000000000816000815181106114c0577f4e487b7100000000000000000000000000000000000000000000000000000000600052603260045260246000fd5b60200101907effffffffffffffffffffffffffffffffffffffffffffffffffffffffffffff1916908160001a9053507f78000000000000000000000000000000000000000000000000000000000000008160018151811061154a577f4e487b7100000000000000000000000000000000000000000000000000000000600052603260045260246000fd5b60200101907effffffffffffffffffffffffffffffffffffffffffffffffffffffffffffff1916908160001a9053506000600184600261158a9190611d67565b6115949190611ce0565b90505b6001811115611680577f3031323334353637383961626364656600000000000000000000000000000000600f8616601081106115fc577f4e487b7100000000000000000000000000000000000000000000000000000000600052603260045260246000fd5b1a60f81b828281518110611639577f4e487b7100000000000000000000000000000000000000000000000000000000600052603260045260246000fd5b60200101907effffffffffffffffffffffffffffffffffffffffffffffffffffffffffffff1916908160001a905350600485901c94508061167990611eb8565b9050611597565b50600084146116c4576040517f08c379a00000000000000000000000000000000000000000000000000000000081526004016116bb90611b62565b60405180910390fd5b8091505092915050565b6000813590506116dd816121c1565b92915050565b6000813590506116f2816121d8565b92915050565b600081359050611707816121ef565b92915050565b60008135905061171c81612206565b92915050565b60006020828403121561173457600080fd5b6000611742848285016116ce565b91505092915050565b60006020828403121561175d57600080fd5b600061176b848285016116e3565b91505092915050565b60006020828403121561178657600080fd5b6000611794848285016116f8565b91505092915050565b600080604083850312156117b057600080fd5b60006117be858286016116f8565b92505060206117cf858286016116ce565b9150509250929050565b6000602082840312156117eb57600080fd5b60006117f98482850161170d565b91505092915050565b61180b81611df5565b82525050565b61181a81611e19565b82525050565b61182981611e25565b82525050565b600061183a82611cb9565b6118448185611cc4565b9350611854818560208601611e85565b61185d81611fa1565b840191505092915050565b600061187382611cb9565b61187d8185611cd5565b935061188d818560208601611e85565b80840191505092915050565b60006118a6602083611cc4565b91506118b182611fb2565b602082019050919050565b60006118c9600f83611cc4565b91506118d482611fdb565b602082019050919050565b60006118ec602683611cc4565b91506118f782612004565b604082019050919050565b600061190f601b83611cc4565b915061191a82612053565b602082019050919050565b6000611932602083611cc4565b915061193d8261207c565b602082019050919050565b6000611955601e83611cc4565b9150611960826120a5565b602082019050919050565b6000611978601883611cc4565b9150611983826120ce565b602082019050919050565b600061199b601783611cd5565b91506119a6826120f7565b601782019050919050565b60006119be601f83611cc4565b91506119c982612120565b602082019050919050565b60006119e1601183611cd5565b91506119ec82612149565b601182019050919050565b6000611a04602f83611cc4565b9150611a0f82612172565b604082019050919050565b602082016000820151611a306000850182611a36565b50505050565b611a3f81611e7b565b82525050565b611a4e81611e7b565b82525050565b6000611a5f8261198e565b9150611a6b8285611868565b9150611a76826119d4565b9150611a828284611868565b91508190509392505050565b6000602082019050611aa36000830184611802565b92915050565b6000602082019050611abe6000830184611811565b92915050565b6000602082019050611ad96000830184611820565b92915050565b60006020820190508181036000830152611af9818461182f565b905092915050565b600060a0820190508181036000830152611b1b818861182f565b90508181036020830152611b2f818761182f565b9050611b3e6040830186611a45565b611b4b6060830185611a45565b611b586080830184611a45565b9695505050505050565b60006020820190508181036000830152611b7b81611899565b9050919050565b60006020820190508181036000830152611b9b816118bc565b9050919050565b60006020820190508181036000830152611bbb816118df565b9050919050565b60006020820190508181036000830152611bdb81611902565b9050919050565b60006020820190508181036000830152611bfb81611925565b9050919050565b60006020820190508181036000830152611c1b81611948565b9050919050565b60006020820190508181036000830152611c3b8161196b565b9050919050565b60006020820190508181036000830152611c5b816119b1565b9050919050565b60006020820190508181036000830152611c7b816119f7565b9050919050565b6000606082019050611c976000830186611a1a565b611ca46020830185611a45565b611cb16040830184611a45565b949350505050565b600081519050919050565b600082825260208201905092915050565b600081905092915050565b6000611ceb82611e7b565b9150611cf683611e7b565b9250827fffffffffffffffffffffffffffffffffffffffffffffffffffffffffffffffff03821115611d2b57611d2a611f14565b5b828201905092915050565b6000611d4182611e7b565b9150611d4c83611e7b565b925082611d5c57611d5b611f43565b5b828204905092915050565b6000611d7282611e7b565b9150611d7d83611e7b565b9250817fffffffffffffffffffffffffffffffffffffffffffffffffffffffffffffffff0483118215151615611db657611db5611f14565b5b828202905092915050565b6000611dcc82611e7b565b9150611dd783611e7b565b925082821015611dea57611de9611f14565b5b828203905092915050565b6000611e0082611e5b565b9050919050565b6000611e1282611e5b565b9050919050565b60008115159050919050565b6000819050919050565b60007fffffffff0000000000000000000000000000000000000000000000000000000082169050919050565b600073ffffffffffffffffffffffffffffffffffffffff82169050919050565b6000819050919050565b60005b83811015611ea3578082015181840152602081019050611e88565b83811115611eb2576000848401525b50505050565b6000611ec382611e7b565b91506000821415611ed757611ed6611f14565b5b600182039050919050565b60006002820490506001821680611efa57607f821691505b60208210811415611f0e57611f0d611f72565b5b50919050565b7f4e487b7100000000000000000000000000000000000000000000000000000000600052601160045260246000fd5b7f4e487b7100000000000000000000000000000000000000000000000000000000600052601260045260246000fd5b7f4e487b7100000000000000000000000000000000000000000000000000000000600052602260045260246000fd5b6000601f19601f8301169050919050565b7f537472696e67733a20686578206c656e67746820696e73756666696369656e74600082015250565b7f4576656e7420736f6c64206f75742e0000000000000000000000000000000000600082015250565b7f4f776e61626c653a206e6577206f776e657220697320746865207a65726f206160008201527f6464726573730000000000000000000000000000000000000000000000000000602082015250565b7f5061727469636970616e74206e6f7420726567697374657265642e0000000000600082015250565b7f4f776e61626c653a2063616c6c6572206973206e6f7420746865206f776e6572600082015250565b7f4f6e6c79206d616e616765722063616e20616464206d616e61676572732e0000600082015250565b7f496e73756666696369656e742065746865722073656e742e0000000000000000600082015250565b7f416363657373436f6e74726f6c3a206163636f756e7420000000000000000000600082015250565b7f5061727469636970616e7420616c726561647920726567697374657265642e00600082015250565b7f206973206d697373696e6720726f6c6520000000000000000000000000000000600082015250565b7f416363657373436f6e74726f6c3a2063616e206f6e6c792072656e6f756e636560008201527f20726f6c657320666f722073656c660000000000000000000000000000000000602082015250565b6121ca81611df5565b81146121d557600080fd5b50565b6121e181611e07565b81146121ec57600080fd5b50565b6121f881611e25565b811461220357600080fd5b50565b61220f81611e2f565b811461221a57600080fd5b5056fea264697066735822122019f2e9f96b6ff142d692495c555fc89085bc019c8ac23412e33d30594d39291d64736f6c63430008040033",
  "linkReferences": {},
  "deployedLinkReferences": {}
}