{
  "_format": "hh-sol-artifact-1",
  "contractName": "Event",
  "sourceName": "contracts/Event.sol",
  "abi": [
    {
      "inputs": [
        {
          "internalType": "string",
          "name": "eventTitle",
          "type": "string"
        },
        {
          "internalType": "string",
          "name": "eventDescription",
          "type": "string"
        },
        {
          "internalType": "uint256",
          "name": "availableTickets",
          "type": "uint256"
        },
        {
          "internalType": "uint256",
          "name": "price",
          "type": "uint256"
        },
        {
          "internalType": "address",
          "name": "owner",
          "type": "address"
        }
      ],
      "stateMutability": "nonpayable",
      "type": "constructor"
    },
    {
      "anonymous": false,
      "inputs": [
        {
          "indexed": true,
          "internalType": "address",
          "name": "previousOwner",
          "type": "address"
        },
        {
          "indexed": true,
          "internalType": "address",
          "name": "newOwner",
          "type": "address"
        }
      ],
      "name": "OwnershipTransferred",
      "type": "event"
    },
    {
      "anonymous": false,
      "inputs": [
        {
          "indexed": true,
          "internalType": "bytes32",
          "name": "role",
          "type": "bytes32"
        },
        {
          "indexed": true,
          "internalType": "bytes32",
          "name": "previousAdminRole",
          "type": "bytes32"
        },
        {
          "indexed": true,
          "internalType": "bytes32",
          "name": "newAdminRole",
          "type": "bytes32"
        }
      ],
      "name": "RoleAdminChanged",
      "type": "event"
    },
    {
      "anonymous": false,
      "inputs": [
        {
          "indexed": true,
          "internalType": "bytes32",
          "name": "role",
          "type": "bytes32"
        },
        {
          "indexed": true,
          "internalType": "address",
          "name": "account",
          "type": "address"
        },
        {
          "indexed": true,
          "internalType": "address",
          "name": "sender",
          "type": "address"
        }
      ],
      "name": "RoleGranted",
      "type": "event"
    },
    {
      "anonymous": false,
      "inputs": [
        {
          "indexed": true,
          "internalType": "bytes32",
          "name": "role",
          "type": "bytes32"
        },
        {
          "indexed": true,
          "internalType": "address",
          "name": "account",
          "type": "address"
        },
        {
          "indexed": true,
          "internalType": "address",
          "name": "sender",
          "type": "address"
        }
      ],
      "name": "RoleRevoked",
      "type": "event"
    },
    {
      "inputs": [],
      "name": "DEFAULT_ADMIN_ROLE",
      "outputs": [
        {
          "internalType": "bytes32",
          "name": "",
          "type": "bytes32"
        }
      ],
      "stateMutability": "view",
      "type": "function"
    },
    {
      "inputs": [],
      "name": "buyTicket",
      "outputs": [],
      "stateMutability": "payable",
      "type": "function"
    },
    {
      "inputs": [],
      "name": "description",
      "outputs": [
        {
          "internalType": "string",
          "name": "",
          "type": "string"
        }
      ],
      "stateMutability": "view",
      "type": "function"
    },
    {
      "inputs": [],
      "name": "getEventData",
      "outputs": [
        {
          "internalType": "string",
          "name": "",
          "type": "string"
        },
        {
          "internalType": "string",
          "name": "",
          "type": "string"
        },
        {
          "internalType": "uint256",
          "name": "",
          "type": "uint256"
        },
        {
          "internalType": "uint256",
          "name": "",
          "type": "uint256"
        },
        {
          "internalType": "uint256",
          "name": "",
          "type": "uint256"
        },
        {
          "internalType": "bool",
          "name": "",
          "type": "bool"
        },
        {
          "internalType": "uint256",
          "name": "",
          "type": "uint256"
        }
      ],
      "stateMutability": "view",
      "type": "function"
    },
    {
      "inputs": [
        {
          "internalType": "bytes32",
          "name": "role",
          "type": "bytes32"
        }
      ],
      "name": "getRoleAdmin",
      "outputs": [
        {
          "internalType": "bytes32",
          "name": "",
          "type": "bytes32"
        }
      ],
      "stateMutability": "view",
      "type": "function"
    },
    {
      "inputs": [
        {
          "internalType": "bytes32",
          "name": "role",
          "type": "bytes32"
        },
        {
          "internalType": "address",
          "name": "account",
          "type": "address"
        }
      ],
      "name": "grantRole",
      "outputs": [],
      "stateMutability": "nonpayable",
      "type": "function"
    },
    {
      "inputs": [
        {
          "internalType": "bytes32",
          "name": "role",
          "type": "bytes32"
        },
        {
          "internalType": "address",
          "name": "account",
          "type": "address"
        }
      ],
      "name": "hasRole",
      "outputs": [
        {
          "internalType": "bool",
          "name": "",
          "type": "bool"
        }
      ],
      "stateMutability": "view",
      "type": "function"
    },
    {
      "inputs": [],
      "name": "owner",
      "outputs": [
        {
          "internalType": "address",
          "name": "",
          "type": "address"
        }
      ],
      "stateMutability": "view",
      "type": "function"
    },
    {
      "inputs": [
        {
          "internalType": "address",
          "name": "",
          "type": "address"
        }
      ],
      "name": "participantRsvp",
      "outputs": [
        {
          "internalType": "bool",
          "name": "",
          "type": "bool"
        }
      ],
      "stateMutability": "view",
      "type": "function"
    },
    {
      "inputs": [
        {
          "internalType": "address",
          "name": "",
          "type": "address"
        }
      ],
      "name": "participantToEvent",
      "outputs": [
        {
          "internalType": "bool",
          "name": "",
          "type": "bool"
        }
      ],
      "stateMutability": "view",
      "type": "function"
    },
    {
      "inputs": [],
      "name": "renounceOwnership",
      "outputs": [],
      "stateMutability": "nonpayable",
      "type": "function"
    },
    {
      "inputs": [
        {
          "internalType": "bytes32",
          "name": "role",
          "type": "bytes32"
        },
        {
          "internalType": "address",
          "name": "account",
          "type": "address"
        }
      ],
      "name": "renounceRole",
      "outputs": [],
      "stateMutability": "nonpayable",
      "type": "function"
    },
    {
      "inputs": [
        {
          "internalType": "bytes32",
          "name": "role",
          "type": "bytes32"
        },
        {
          "internalType": "address",
          "name": "account",
          "type": "address"
        }
      ],
      "name": "revokeRole",
      "outputs": [],
      "stateMutability": "nonpayable",
      "type": "function"
    },
    {
      "inputs": [],
      "name": "rsvpCount",
      "outputs": [
        {
          "internalType": "uint256",
          "name": "",
          "type": "uint256"
        }
      ],
      "stateMutability": "view",
      "type": "function"
    },
    {
      "inputs": [
        {
          "internalType": "address payable",
          "name": "participant",
          "type": "address"
        }
      ],
      "name": "rsvpParticipant",
      "outputs": [],
      "stateMutability": "nonpayable",
      "type": "function"
    },
    {
      "inputs": [
        {
          "internalType": "bytes4",
          "name": "interfaceId",
          "type": "bytes4"
        }
      ],
      "name": "supportsInterface",
      "outputs": [
        {
          "internalType": "bool",
          "name": "",
          "type": "bool"
        }
      ],
      "stateMutability": "view",
      "type": "function"
    },
    {
      "inputs": [],
      "name": "ticket",
      "outputs": [
        {
          "components": [
            {
              "internalType": "uint256",
              "name": "_value",
              "type": "uint256"
            }
          ],
          "internalType": "struct Counters.Counter",
          "name": "sold",
          "type": "tuple"
        },
        {
          "internalType": "uint256",
          "name": "totalTickets",
          "type": "uint256"
        },
        {
          "internalType": "uint256",
          "name": "ticketPrice",
          "type": "uint256"
        }
      ],
      "stateMutability": "view",
      "type": "function"
    },
    {
      "inputs": [],
      "name": "title",
      "outputs": [
        {
          "internalType": "string",
          "name": "",
          "type": "string"
        }
      ],
      "stateMutability": "view",
      "type": "function"
    },
    {
      "inputs": [
        {
          "internalType": "address",
          "name": "newOwner",
          "type": "address"
        }
      ],
      "name": "transferOwnership",
      "outputs": [],
      "stateMutability": "nonpayable",
      "type": "function"
    },
    {
      "inputs": [],
      "name": "withdrawFunds",
      "outputs": [],
      "stateMutability": "nonpayable",
      "type": "function"
    }
  ],
  "bytecode": "0x60806040523480156200001157600080fd5b5060405162002a1e38038062002a1e83398181016040528101906200003791906200046a565b620000576200004b620000f960201b60201c565b6200010160201b60201c565b84600890805190602001906200006f92919062000307565b5083600990805190602001906200008892919062000307565b506200009362000398565b60405180606001604052808281526020018581526020018481525060026000820151816000016000820151816000015550506020820151816001015560408201518160020155905050620000ed82620001c760201b60201c565b5050505050506200081b565b600033905090565b6000600160009054906101000a900473ffffffffffffffffffffffffffffffffffffffff16905081600160006101000a81548173ffffffffffffffffffffffffffffffffffffffff021916908373ffffffffffffffffffffffffffffffffffffffff1602179055508173ffffffffffffffffffffffffffffffffffffffff168173ffffffffffffffffffffffffffffffffffffffff167f8be0079c531659141344cd1fd0a4f28419497f9722a3daafe3b4186f6b6457e060405160405180910390a35050565b620001d7620000f960201b60201c565b73ffffffffffffffffffffffffffffffffffffffff16620001fd620002dd60201b60201c565b73ffffffffffffffffffffffffffffffffffffffff161462000256576040517f08c379a00000000000000000000000000000000000000000000000000000000081526004016200024d906200058e565b60405180910390fd5b600073ffffffffffffffffffffffffffffffffffffffff168173ffffffffffffffffffffffffffffffffffffffff161415620002c9576040517f08c379a0000000000000000000000000000000000000000000000000000000008152600401620002c0906200056c565b60405180910390fd5b620002da816200010160201b60201c565b50565b6000600160009054906101000a900473ffffffffffffffffffffffffffffffffffffffff16905090565b828054620003159062000694565b90600052602060002090601f01602090048101928262000339576000855562000385565b82601f106200035457805160ff191683800117855562000385565b8280016001018555821562000385579182015b828111156200038457825182559160200191906001019062000367565b5b509050620003949190620003ab565b5090565b6040518060200160405280600081525090565b5b80821115620003c6576000816000905550600101620003ac565b5090565b6000620003e1620003db84620005d9565b620005b0565b905082815260208101848484011115620003fa57600080fd5b620004078482856200065e565b509392505050565b6000815190506200042081620007e7565b92915050565b600082601f8301126200043857600080fd5b81516200044a848260208601620003ca565b91505092915050565b600081519050620004648162000801565b92915050565b600080600080600060a086880312156200048357600080fd5b600086015167ffffffffffffffff8111156200049e57600080fd5b620004ac8882890162000426565b955050602086015167ffffffffffffffff811115620004ca57600080fd5b620004d88882890162000426565b9450506040620004eb8882890162000453565b9350506060620004fe8882890162000453565b925050608062000511888289016200040f565b9150509295509295909350565b60006200052d6026836200060f565b91506200053a826200076f565b604082019050919050565b6000620005546020836200060f565b91506200056182620007be565b602082019050919050565b6000602082019050818103600083015262000587816200051e565b9050919050565b60006020820190508181036000830152620005a98162000545565b9050919050565b6000620005bc620005cf565b9050620005ca8282620006ca565b919050565b6000604051905090565b600067ffffffffffffffff821115620005f757620005f66200072f565b5b62000602826200075e565b9050602081019050919050565b600082825260208201905092915050565b60006200062d8262000634565b9050919050565b600073ffffffffffffffffffffffffffffffffffffffff82169050919050565b6000819050919050565b60005b838110156200067e57808201518184015260208101905062000661565b838111156200068e576000848401525b50505050565b60006002820490506001821680620006ad57607f821691505b60208210811415620006c457620006c362000700565b5b50919050565b620006d5826200075e565b810181811067ffffffffffffffff82111715620006f757620006f66200072f565b5b80604052505050565b7f4e487b7100000000000000000000000000000000000000000000000000000000600052602260045260246000fd5b7f4e487b7100000000000000000000000000000000000000000000000000000000600052604160045260246000fd5b6000601f19601f8301169050919050565b7f4f776e61626c653a206e6577206f776e657220697320746865207a65726f206160008201527f6464726573730000000000000000000000000000000000000000000000000000602082015250565b7f4f776e61626c653a2063616c6c6572206973206e6f7420746865206f776e6572600082015250565b620007f28162000620565b8114620007fe57600080fd5b50565b6200080c8162000654565b81146200081857600080fd5b50565b6121f3806200082b6000396000f3fe60806040526004361061011f5760003560e01c8063715018a6116100a0578063bf63556d11610064578063bf63556d146103cd578063c44f1de21461040a578063d547741f14610433578063edca914c1461045c578063f2fde38b146104665761011f565b8063715018a6146102f85780637284e4161461030f5780638da5cb5b1461033a57806391d1485414610365578063a217fddf146103a25761011f565b80634155b692116100e75780634155b692146102075780634a79d50c1461023257806361ac63eb1461025d57806366472f1c1461029a5780636cc25db7146102cb5761011f565b806301ffc9a71461012457806324600fc314610161578063248a9ca3146101785780632f2ff15d146101b557806336568abe146101de575b600080fd5b34801561013057600080fd5b5061014b60048036038101906101469190611765565b61048f565b6040516101589190611a12565b60405180910390f35b34801561016d57600080fd5b50610176610509565b005b34801561018457600080fd5b5061019f600480360381019061019a9190611700565b6105d5565b6040516101ac9190611a2d565b60405180910390f35b3480156101c157600080fd5b506101dc60048036038101906101d79190611729565b6105f4565b005b3480156101ea57600080fd5b5061020560048036038101906102009190611729565b61061d565b005b34801561021357600080fd5b5061021c6106a0565b6040516102299190611c1e565b60405180910390f35b34801561023e57600080fd5b506102476106a6565b6040516102549190611a48565b60405180910390f35b34801561026957600080fd5b50610284600480360381019061027f91906116ae565b610734565b6040516102919190611a12565b60405180910390f35b3480156102a657600080fd5b506102af610754565b6040516102c29796959493929190611a6a565b60405180910390f35b3480156102d757600080fd5b506102e06108fa565b6040516102ef93929190611be7565b60405180910390f35b34801561030457600080fd5b5061030d610926565b005b34801561031b57600080fd5b506103246109ae565b6040516103319190611a48565b60405180910390f35b34801561034657600080fd5b5061034f610a3c565b60405161035c91906119f7565b60405180910390f35b34801561037157600080fd5b5061038c60048036038101906103879190611729565b610a66565b6040516103999190611a12565b60405180910390f35b3480156103ae57600080fd5b506103b7610ad0565b6040516103c49190611a2d565b60405180910390f35b3480156103d957600080fd5b506103f460048036038101906103ef91906116ae565b610ad7565b6040516104019190611a12565b60405180910390f35b34801561041657600080fd5b50610431600480360381019061042c91906116d7565b610af7565b005b34801561043f57600080fd5b5061045a60048036038101906104559190611729565b610cf1565b005b610464610d1a565b005b34801561047257600080fd5b5061048d600480360381019061048891906116ae565b610eae565b005b60007f7965db0b000000000000000000000000000000000000000000000000000000007bffffffffffffffffffffffffffffffffffffffffffffffffffffffff1916827bffffffffffffffffffffffffffffffffffffffffffffffffffffffff19161480610502575061050182610fa6565b5b9050919050565b610511611010565b73ffffffffffffffffffffffffffffffffffffffff1661052f610a3c565b73ffffffffffffffffffffffffffffffffffffffff1614610585576040517f08c379a000000000000000000000000000000000000000000000000000000000815260040161057c90611b67565b60405180910390fd5b61058d610a3c565b73ffffffffffffffffffffffffffffffffffffffff166108fc479081150290604051600060405180830381858888f193505050501580156105d2573d6000803e3d6000fd5b50565b6000806000838152602001908152602001600020600101549050919050565b6105fd826105d5565b61060e81610609611010565b611018565b61061883836110b5565b505050565b610625611010565b73ffffffffffffffffffffffffffffffffffffffff168173ffffffffffffffffffffffffffffffffffffffff1614610692576040517f08c379a000000000000000000000000000000000000000000000000000000000815260040161068990611bc7565b60405180910390fd5b61069c8282611195565b5050565b60075481565b600880546106b390611e62565b80601f01602080910402602001604051908101604052809291908181526020018280546106df90611e62565b801561072c5780601f106107015761010080835404028352916020019161072c565b820191906000526020600020905b81548152906001019060200180831161070f57829003601f168201915b505050505081565b60056020528060005260406000206000915054906101000a900460ff1681565b6060806000806000806000600860096107706002600001611276565b6002600101546002800154600560003373ffffffffffffffffffffffffffffffffffffffff1673ffffffffffffffffffffffffffffffffffffffff16815260200190815260200160002060009054906101000a900460ff166007548680546107d790611e62565b80601f016020809104026020016040519081016040528092919081815260200182805461080390611e62565b80156108505780601f1061082557610100808354040283529160200191610850565b820191906000526020600020905b81548152906001019060200180831161083357829003601f168201915b5050505050965085805461086390611e62565b80601f016020809104026020016040519081016040528092919081815260200182805461088f90611e62565b80156108dc5780601f106108b1576101008083540402835291602001916108dc565b820191906000526020600020905b8154815290600101906020018083116108bf57829003601f168201915b50505050509550965096509650965096509650965090919293949596565b600280600001604051806020016040529081600082015481525050908060010154908060020154905083565b61092e611010565b73ffffffffffffffffffffffffffffffffffffffff1661094c610a3c565b73ffffffffffffffffffffffffffffffffffffffff16146109a2576040517f08c379a000000000000000000000000000000000000000000000000000000000815260040161099990611b67565b60405180910390fd5b6109ac6000611284565b565b600980546109bb90611e62565b80601f01602080910402602001604051908101604052809291908181526020018280546109e790611e62565b8015610a345780601f10610a0957610100808354040283529160200191610a34565b820191906000526020600020905b815481529060010190602001808311610a1757829003601f168201915b505050505081565b6000600160009054906101000a900473ffffffffffffffffffffffffffffffffffffffff16905090565b600080600084815260200190815260200160002060000160008373ffffffffffffffffffffffffffffffffffffffff1673ffffffffffffffffffffffffffffffffffffffff16815260200190815260200160002060009054906101000a900460ff16905092915050565b6000801b81565b60066020528060005260406000206000915054906101000a900460ff1681565b610aff611010565b73ffffffffffffffffffffffffffffffffffffffff16610b1d610a3c565b73ffffffffffffffffffffffffffffffffffffffff1614610b73576040517f08c379a0000000000000000000000000000000000000000000000000000000008152600401610b6a90611b67565b60405180910390fd5b60011515600560008373ffffffffffffffffffffffffffffffffffffffff1673ffffffffffffffffffffffffffffffffffffffff16815260200190815260200160002060009054906101000a900460ff16151514610c06576040517f08c379a0000000000000000000000000000000000000000000000000000000008152600401610bfd90611b47565b60405180910390fd5b6001600660008373ffffffffffffffffffffffffffffffffffffffff1673ffffffffffffffffffffffffffffffffffffffff16815260200190815260200160002060006101000a81548160ff02191690831515021790555060076000815480929190610c7190611e94565b91905055506000600160646002800154610c8b9190611cb6565b610c959190611ce7565b6002800154610ca49190611d41565b90508173ffffffffffffffffffffffffffffffffffffffff166108fc829081150290604051600060405180830381858888f19350505050158015610cec573d6000803e3d6000fd5b505050565b610cfa826105d5565b610d0b81610d06611010565b611018565b610d158383611195565b505050565b600260010154610d2d6002600001611276565b10610d6d576040517f08c379a0000000000000000000000000000000000000000000000000000000008152600401610d6490611b07565b60405180910390fd5b60028001543414610db3576040517f08c379a0000000000000000000000000000000000000000000000000000000008152600401610daa90611b87565b60405180910390fd5b60011515600560003373ffffffffffffffffffffffffffffffffffffffff1673ffffffffffffffffffffffffffffffffffffffff16815260200190815260200160002060009054906101000a900460ff1615151415610e47576040517f08c379a0000000000000000000000000000000000000000000000000000000008152600401610e3e90611ba7565b60405180910390fd5b6001600560003373ffffffffffffffffffffffffffffffffffffffff1673ffffffffffffffffffffffffffffffffffffffff16815260200190815260200160002060006101000a81548160ff021916908315150217905550610eac600260000161134a565b565b610eb6611010565b73ffffffffffffffffffffffffffffffffffffffff16610ed4610a3c565b73ffffffffffffffffffffffffffffffffffffffff1614610f2a576040517f08c379a0000000000000000000000000000000000000000000000000000000008152600401610f2190611b67565b60405180910390fd5b600073ffffffffffffffffffffffffffffffffffffffff168173ffffffffffffffffffffffffffffffffffffffff161415610f9a576040517f08c379a0000000000000000000000000000000000000000000000000000000008152600401610f9190611b27565b60405180910390fd5b610fa381611284565b50565b60007f01ffc9a7000000000000000000000000000000000000000000000000000000007bffffffffffffffffffffffffffffffffffffffffffffffffffffffff1916827bffffffffffffffffffffffffffffffffffffffffffffffffffffffff1916149050919050565b600033905090565b6110228282610a66565b6110b1576110478173ffffffffffffffffffffffffffffffffffffffff166014611360565b6110558360001c6020611360565b6040516020016110669291906119bd565b6040516020818303038152906040526040517f08c379a00000000000000000000000000000000000000000000000000000000081526004016110a89190611a48565b60405180910390fd5b5050565b6110bf8282610a66565b61119157600160008084815260200190815260200160002060000160008373ffffffffffffffffffffffffffffffffffffffff1673ffffffffffffffffffffffffffffffffffffffff16815260200190815260200160002060006101000a81548160ff021916908315150217905550611136611010565b73ffffffffffffffffffffffffffffffffffffffff168173ffffffffffffffffffffffffffffffffffffffff16837f2f8788117e7eff1d82e926ec794901d17c78024a50270940304540a733656f0d60405160405180910390a45b5050565b61119f8282610a66565b1561127257600080600084815260200190815260200160002060000160008373ffffffffffffffffffffffffffffffffffffffff1673ffffffffffffffffffffffffffffffffffffffff16815260200190815260200160002060006101000a81548160ff021916908315150217905550611217611010565b73ffffffffffffffffffffffffffffffffffffffff168173ffffffffffffffffffffffffffffffffffffffff16837ff6391f5c32d9c69d2a47ea670b442974b53935d1edc7fd64eb21e047a839171b60405160405180910390a45b5050565b600081600001549050919050565b6000600160009054906101000a900473ffffffffffffffffffffffffffffffffffffffff16905081600160006101000a81548173ffffffffffffffffffffffffffffffffffffffff021916908373ffffffffffffffffffffffffffffffffffffffff1602179055508173ffffffffffffffffffffffffffffffffffffffff168173ffffffffffffffffffffffffffffffffffffffff167f8be0079c531659141344cd1fd0a4f28419497f9722a3daafe3b4186f6b6457e060405160405180910390a35050565b6001816000016000828254019250508190555050565b6060600060028360026113739190611ce7565b61137d9190611c60565b67ffffffffffffffff8111156113bc577f4e487b7100000000000000000000000000000000000000000000000000000000600052604160045260246000fd5b6040519080825280601f01601f1916602001820160405280156113ee5781602001600182028036833780820191505090505b5090507f30000000000000000000000000000000000000000000000000000000000000008160008151811061144c577f4e487b7100000000000000000000000000000000000000000000000000000000600052603260045260246000fd5b60200101907effffffffffffffffffffffffffffffffffffffffffffffffffffffffffffff1916908160001a9053507f7800000000000000000000000000000000000000000000000000000000000000816001815181106114d6577f4e487b7100000000000000000000000000000000000000000000000000000000600052603260045260246000fd5b60200101907effffffffffffffffffffffffffffffffffffffffffffffffffffffffffffff1916908160001a905350600060018460026115169190611ce7565b6115209190611c60565b90505b600181111561160c577f3031323334353637383961626364656600000000000000000000000000000000600f861660108110611588577f4e487b7100000000000000000000000000000000000000000000000000000000600052603260045260246000fd5b1a60f81b8282815181106115c5577f4e487b7100000000000000000000000000000000000000000000000000000000600052603260045260246000fd5b60200101907effffffffffffffffffffffffffffffffffffffffffffffffffffffffffffff1916908160001a905350600485901c94508061160590611e38565b9050611523565b5060008414611650576040517f08c379a000000000000000000000000000000000000000000000000000000000815260040161164790611ae7565b60405180910390fd5b8091505092915050565b60008135905061166981612161565b92915050565b60008135905061167e81612178565b92915050565b6000813590506116938161218f565b92915050565b6000813590506116a8816121a6565b92915050565b6000602082840312156116c057600080fd5b60006116ce8482850161165a565b91505092915050565b6000602082840312156116e957600080fd5b60006116f78482850161166f565b91505092915050565b60006020828403121561171257600080fd5b600061172084828501611684565b91505092915050565b6000806040838503121561173c57600080fd5b600061174a85828601611684565b925050602061175b8582860161165a565b9150509250929050565b60006020828403121561177757600080fd5b600061178584828501611699565b91505092915050565b61179781611d75565b82525050565b6117a681611d99565b82525050565b6117b581611da5565b82525050565b60006117c682611c39565b6117d08185611c44565b93506117e0818560208601611e05565b6117e981611f6a565b840191505092915050565b60006117ff82611c39565b6118098185611c55565b9350611819818560208601611e05565b80840191505092915050565b6000611832602083611c44565b915061183d82611f7b565b602082019050919050565b6000611855600f83611c44565b915061186082611fa4565b602082019050919050565b6000611878602683611c44565b915061188382611fcd565b604082019050919050565b600061189b601b83611c44565b91506118a68261201c565b602082019050919050565b60006118be602083611c44565b91506118c982612045565b602082019050919050565b60006118e1601883611c44565b91506118ec8261206e565b602082019050919050565b6000611904601783611c55565b915061190f82612097565b601782019050919050565b6000611927601f83611c44565b9150611932826120c0565b602082019050919050565b600061194a601183611c55565b9150611955826120e9565b601182019050919050565b600061196d602f83611c44565b915061197882612112565b604082019050919050565b602082016000820151611999600085018261199f565b50505050565b6119a881611dfb565b82525050565b6119b781611dfb565b82525050565b60006119c8826118f7565b91506119d482856117f4565b91506119df8261193d565b91506119eb82846117f4565b91508190509392505050565b6000602082019050611a0c600083018461178e565b92915050565b6000602082019050611a27600083018461179d565b92915050565b6000602082019050611a4260008301846117ac565b92915050565b60006020820190508181036000830152611a6281846117bb565b905092915050565b600060e0820190508181036000830152611a84818a6117bb565b90508181036020830152611a9881896117bb565b9050611aa760408301886119ae565b611ab460608301876119ae565b611ac160808301866119ae565b611ace60a083018561179d565b611adb60c08301846119ae565b98975050505050505050565b60006020820190508181036000830152611b0081611825565b9050919050565b60006020820190508181036000830152611b2081611848565b9050919050565b60006020820190508181036000830152611b408161186b565b9050919050565b60006020820190508181036000830152611b608161188e565b9050919050565b60006020820190508181036000830152611b80816118b1565b9050919050565b60006020820190508181036000830152611ba0816118d4565b9050919050565b60006020820190508181036000830152611bc08161191a565b9050919050565b60006020820190508181036000830152611be081611960565b9050919050565b6000606082019050611bfc6000830186611983565b611c0960208301856119ae565b611c1660408301846119ae565b949350505050565b6000602082019050611c3360008301846119ae565b92915050565b600081519050919050565b600082825260208201905092915050565b600081905092915050565b6000611c6b82611dfb565b9150611c7683611dfb565b9250827fffffffffffffffffffffffffffffffffffffffffffffffffffffffffffffffff03821115611cab57611caa611edd565b5b828201905092915050565b6000611cc182611dfb565b9150611ccc83611dfb565b925082611cdc57611cdb611f0c565b5b828204905092915050565b6000611cf282611dfb565b9150611cfd83611dfb565b9250817fffffffffffffffffffffffffffffffffffffffffffffffffffffffffffffffff0483118215151615611d3657611d35611edd565b5b828202905092915050565b6000611d4c82611dfb565b9150611d5783611dfb565b925082821015611d6a57611d69611edd565b5b828203905092915050565b6000611d8082611ddb565b9050919050565b6000611d9282611ddb565b9050919050565b60008115159050919050565b6000819050919050565b60007fffffffff0000000000000000000000000000000000000000000000000000000082169050919050565b600073ffffffffffffffffffffffffffffffffffffffff82169050919050565b6000819050919050565b60005b83811015611e23578082015181840152602081019050611e08565b83811115611e32576000848401525b50505050565b6000611e4382611dfb565b91506000821415611e5757611e56611edd565b5b600182039050919050565b60006002820490506001821680611e7a57607f821691505b60208210811415611e8e57611e8d611f3b565b5b50919050565b6000611e9f82611dfb565b91507fffffffffffffffffffffffffffffffffffffffffffffffffffffffffffffffff821415611ed257611ed1611edd565b5b600182019050919050565b7f4e487b7100000000000000000000000000000000000000000000000000000000600052601160045260246000fd5b7f4e487b7100000000000000000000000000000000000000000000000000000000600052601260045260246000fd5b7f4e487b7100000000000000000000000000000000000000000000000000000000600052602260045260246000fd5b6000601f19601f8301169050919050565b7f537472696e67733a20686578206c656e67746820696e73756666696369656e74600082015250565b7f4576656e7420736f6c64206f75742e0000000000000000000000000000000000600082015250565b7f4f776e61626c653a206e6577206f776e657220697320746865207a65726f206160008201527f6464726573730000000000000000000000000000000000000000000000000000602082015250565b7f5061727469636970616e74206e6f7420726567697374657265642e0000000000600082015250565b7f4f776e61626c653a2063616c6c6572206973206e6f7420746865206f776e6572600082015250565b7f496e73756666696369656e742065746865722073656e742e0000000000000000600082015250565b7f416363657373436f6e74726f6c3a206163636f756e7420000000000000000000600082015250565b7f5061727469636970616e7420616c726561647920726567697374657265642e00600082015250565b7f206973206d697373696e6720726f6c6520000000000000000000000000000000600082015250565b7f416363657373436f6e74726f6c3a2063616e206f6e6c792072656e6f756e636560008201527f20726f6c657320666f722073656c660000000000000000000000000000000000602082015250565b61216a81611d75565b811461217557600080fd5b50565b61218181611d87565b811461218c57600080fd5b50565b61219881611da5565b81146121a357600080fd5b50565b6121af81611daf565b81146121ba57600080fd5b5056fea26469706673582212205f4487f35ded7514dbe7de8cd7febb642e0e752a2f9bd63ce5c532a8d20847ac64736f6c63430008040033",
  "linkReferences": {},
  "deployedLinkReferences": {}
}