{
  "_format": "hh-sol-artifact-1",
  "contractName": "EventFactory",
  "sourceName": "contracts/EventFactory.sol",
  "abi": [
    {
      "inputs": [
        {
          "internalType": "string",
          "name": "eventTitle",
          "type": "string"
        },
        {
          "internalType": "string",
          "name": "eventDescription",
          "type": "string"
        },
        {
          "internalType": "uint256",
          "name": "availableTickets",
          "type": "uint256"
        },
        {
          "internalType": "uint256",
          "name": "price",
          "type": "uint256"
        }
      ],
      "name": "createEvent",
      "outputs": [],
      "stateMutability": "nonpayable",
      "type": "function"
    },
    {
      "inputs": [
        {
          "internalType": "uint256",
          "name": "",
          "type": "uint256"
        }
      ],
      "name": "events",
      "outputs": [
        {
          "internalType": "address",
          "name": "",
          "type": "address"
        }
      ],
      "stateMutability": "view",
      "type": "function"
    },
    {
      "inputs": [],
      "name": "getEvents",
      "outputs": [
        {
          "internalType": "address[]",
          "name": "",
          "type": "address[]"
        }
      ],
      "stateMutability": "view",
      "type": "function"
    },
    {
      "inputs": [],
      "name": "getOwnerEvents",
      "outputs": [
        {
          "internalType": "address[]",
          "name": "",
          "type": "address[]"
        }
      ],
      "stateMutability": "view",
      "type": "function"
    },
    {
      "inputs": [
        {
          "internalType": "address",
          "name": "",
          "type": "address"
        },
        {
          "internalType": "uint256",
          "name": "",
          "type": "uint256"
        }
      ],
      "name": "ownerEvents",
      "outputs": [
        {
          "internalType": "address",
          "name": "",
          "type": "address"
        }
      ],
      "stateMutability": "view",
      "type": "function"
    }
  ],
  "bytecode": "0x608060405234801561001057600080fd5b50613331806100206000396000f3fe60806040523480156200001157600080fd5b50600436106200005e5760003560e01c80630b7914301462000063578063404aa8f9146200009957806341507cc814620000bb578063bce062b914620000f1578063c23a7ea11462000111575b600080fd5b6200008160048036038101906200007b9190620005fb565b62000133565b6040516200009091906200071f565b60405180910390f35b620000a362000173565b604051620000b291906200073c565b60405180910390f35b620000d96004803603810190620000d391906200051c565b62000203565b604051620000e891906200071f565b60405180910390f35b6200010f60048036038101906200010991906200055d565b62000252565b005b6200011b620003a1565b6040516200012a91906200073c565b60405180910390f35b600081815481106200014457600080fd5b906000526020600020016000915054906101000a900473ffffffffffffffffffffffffffffffffffffffff1681565b60606000805480602002602001604051908101604052809291908181526020018280548015620001f957602002820191906000526020600020905b8160009054906101000a900473ffffffffffffffffffffffffffffffffffffffff1673ffffffffffffffffffffffffffffffffffffffff1681526020019060010190808311620001ae575b5050505050905090565b600160205281600052604060002081815481106200022057600080fd5b906000526020600020016000915091509054906101000a900473ffffffffffffffffffffffffffffffffffffffff1681565b6000848484843360405162000267906200046e565b6200027795949392919062000760565b604051809103906000f08015801562000294573d6000803e3d6000fd5b5090506000819080600181540180825580915050600190039060005260206000200160009091909190916101000a81548173ffffffffffffffffffffffffffffffffffffffff021916908373ffffffffffffffffffffffffffffffffffffffff160217905550600160003373ffffffffffffffffffffffffffffffffffffffff1673ffffffffffffffffffffffffffffffffffffffff168152602001908152602001600020819080600181540180825580915050600190039060005260206000200160009091909190916101000a81548173ffffffffffffffffffffffffffffffffffffffff021916908373ffffffffffffffffffffffffffffffffffffffff1602179055505050505050565b6060600160003373ffffffffffffffffffffffffffffffffffffffff1673ffffffffffffffffffffffffffffffffffffffff1681526020019081526020016000208054806020026020016040519081016040528092919081815260200182805480156200046457602002820191906000526020600020905b8160009054906101000a900473ffffffffffffffffffffffffffffffffffffffff1673ffffffffffffffffffffffffffffffffffffffff168152602001906001019080831162000419575b5050505050905090565b61294f80620009ad83390190565b6000620004936200048d84620007f4565b620007cb565b905082815260208101848484011115620004ac57600080fd5b620004b9848285620008bd565b509392505050565b600081359050620004d28162000978565b92915050565b600082601f830112620004ea57600080fd5b8135620004fc8482602086016200047c565b91505092915050565b600081359050620005168162000992565b92915050565b600080604083850312156200053057600080fd5b60006200054085828601620004c1565b9250506020620005538582860162000505565b9150509250929050565b600080600080608085870312156200057457600080fd5b600085013567ffffffffffffffff8111156200058f57600080fd5b6200059d87828801620004d8565b945050602085013567ffffffffffffffff811115620005bb57600080fd5b620005c987828801620004d8565b9350506040620005dc8782880162000505565b9250506060620005ef8782880162000505565b91505092959194509250565b6000602082840312156200060e57600080fd5b60006200061e8482850162000505565b91505092915050565b600062000635838362000641565b60208301905092915050565b6200064c816200087f565b82525050565b6200065d816200087f565b82525050565b600062000670826200083a565b6200067c81856200085d565b935062000689836200082a565b8060005b83811015620006c0578151620006a4888262000627565b9750620006b18362000850565b9250506001810190506200068d565b5085935050505092915050565b6000620006da8262000845565b620006e681856200086e565b9350620006f8818560208601620008cc565b620007038162000967565b840191505092915050565b6200071981620008b3565b82525050565b600060208201905062000736600083018462000652565b92915050565b6000602082019050818103600083015262000758818462000663565b905092915050565b600060a08201905081810360008301526200077c8188620006cd565b90508181036020830152620007928187620006cd565b9050620007a360408301866200070e565b620007b260608301856200070e565b620007c1608083018462000652565b9695505050505050565b6000620007d7620007ea565b9050620007e5828262000902565b919050565b6000604051905090565b600067ffffffffffffffff82111562000812576200081162000938565b5b6200081d8262000967565b9050602081019050919050565b6000819050602082019050919050565b600081519050919050565b600081519050919050565b6000602082019050919050565b600082825260208201905092915050565b600082825260208201905092915050565b60006200088c8262000893565b9050919050565b600073ffffffffffffffffffffffffffffffffffffffff82169050919050565b6000819050919050565b82818337600083830152505050565b60005b83811015620008ec578082015181840152602081019050620008cf565b83811115620008fc576000848401525b50505050565b6200090d8262000967565b810181811067ffffffffffffffff821117156200092f576200092e62000938565b5b80604052505050565b7f4e487b7100000000000000000000000000000000000000000000000000000000600052604160045260246000fd5b6000601f19601f8301169050919050565b62000983816200087f565b81146200098f57600080fd5b50565b6200099d81620008b3565b8114620009a957600080fd5b5056fe60806040523480156200001157600080fd5b506040516200294f3803806200294f83398181016040528101906200003791906200046a565b620000576200004b620000f960201b60201c565b6200010160201b60201c565b84600790805190602001906200006f92919062000307565b5083600890805190602001906200008892919062000307565b506200009362000398565b60405180606001604052808281526020018581526020018481525060026000820151816000016000820151816000015550506020820151816001015560408201518160020155905050620000ed82620001c760201b60201c565b5050505050506200081b565b600033905090565b6000600160009054906101000a900473ffffffffffffffffffffffffffffffffffffffff16905081600160006101000a81548173ffffffffffffffffffffffffffffffffffffffff021916908373ffffffffffffffffffffffffffffffffffffffff1602179055508173ffffffffffffffffffffffffffffffffffffffff168173ffffffffffffffffffffffffffffffffffffffff167f8be0079c531659141344cd1fd0a4f28419497f9722a3daafe3b4186f6b6457e060405160405180910390a35050565b620001d7620000f960201b60201c565b73ffffffffffffffffffffffffffffffffffffffff16620001fd620002dd60201b60201c565b73ffffffffffffffffffffffffffffffffffffffff161462000256576040517f08c379a00000000000000000000000000000000000000000000000000000000081526004016200024d906200058e565b60405180910390fd5b600073ffffffffffffffffffffffffffffffffffffffff168173ffffffffffffffffffffffffffffffffffffffff161415620002c9576040517f08c379a0000000000000000000000000000000000000000000000000000000008152600401620002c0906200056c565b60405180910390fd5b620002da816200010160201b60201c565b50565b6000600160009054906101000a900473ffffffffffffffffffffffffffffffffffffffff16905090565b828054620003159062000694565b90600052602060002090601f01602090048101928262000339576000855562000385565b82601f106200035457805160ff191683800117855562000385565b8280016001018555821562000385579182015b828111156200038457825182559160200191906001019062000367565b5b509050620003949190620003ab565b5090565b6040518060200160405280600081525090565b5b80821115620003c6576000816000905550600101620003ac565b5090565b6000620003e1620003db84620005d9565b620005b0565b905082815260208101848484011115620003fa57600080fd5b620004078482856200065e565b509392505050565b6000815190506200042081620007e7565b92915050565b600082601f8301126200043857600080fd5b81516200044a848260208601620003ca565b91505092915050565b600081519050620004648162000801565b92915050565b600080600080600060a086880312156200048357600080fd5b600086015167ffffffffffffffff8111156200049e57600080fd5b620004ac8882890162000426565b955050602086015167ffffffffffffffff811115620004ca57600080fd5b620004d88882890162000426565b9450506040620004eb8882890162000453565b9350506060620004fe8882890162000453565b925050608062000511888289016200040f565b9150509295509295909350565b60006200052d6026836200060f565b91506200053a826200076f565b604082019050919050565b6000620005546020836200060f565b91506200056182620007be565b602082019050919050565b6000602082019050818103600083015262000587816200051e565b9050919050565b60006020820190508181036000830152620005a98162000545565b9050919050565b6000620005bc620005cf565b9050620005ca8282620006ca565b919050565b6000604051905090565b600067ffffffffffffffff821115620005f757620005f66200072f565b5b62000602826200075e565b9050602081019050919050565b600082825260208201905092915050565b60006200062d8262000634565b9050919050565b600073ffffffffffffffffffffffffffffffffffffffff82169050919050565b6000819050919050565b60005b838110156200067e57808201518184015260208101905062000661565b838111156200068e576000848401525b50505050565b60006002820490506001821680620006ad57607f821691505b60208210811415620006c457620006c362000700565b5b50919050565b620006d5826200075e565b810181811067ffffffffffffffff82111715620006f757620006f66200072f565b5b80604052505050565b7f4e487b7100000000000000000000000000000000000000000000000000000000600052602260045260246000fd5b7f4e487b7100000000000000000000000000000000000000000000000000000000600052604160045260246000fd5b6000601f19601f8301169050919050565b7f4f776e61626c653a206e6577206f776e657220697320746865207a65726f206160008201527f6464726573730000000000000000000000000000000000000000000000000000602082015250565b7f4f776e61626c653a2063616c6c6572206973206e6f7420746865206f776e6572600082015250565b620007f28162000620565b8114620007fe57600080fd5b50565b6200080c8162000654565b81146200081857600080fd5b50565b612124806200082b6000396000f3fe6080604052600436106101145760003560e01c8063715018a6116100a0578063bf63556d11610064578063bf63556d14610396578063c44f1de2146103d3578063d547741f146103fc578063edca914c14610425578063f2fde38b1461042f57610114565b8063715018a6146102c15780637284e416146102d85780638da5cb5b1461030357806391d148541461032e578063a217fddf1461036b57610114565b806336568abe116100e757806336568abe146101d35780634a79d50c146101fc57806361ac63eb1461022757806366472f1c146102645780636cc25db71461029457610114565b806301ffc9a71461011957806324600fc314610156578063248a9ca31461016d5780632f2ff15d146101aa575b600080fd5b34801561012557600080fd5b50610140600480360381019061013b9190611708565b610458565b60405161014d91906119b5565b60405180910390f35b34801561016257600080fd5b5061016b6104d2565b005b34801561017957600080fd5b50610194600480360381019061018f91906116a3565b61059e565b6040516101a191906119d0565b60405180910390f35b3480156101b657600080fd5b506101d160048036038101906101cc91906116cc565b6105bd565b005b3480156101df57600080fd5b506101fa60048036038101906101f591906116cc565b6105e6565b005b34801561020857600080fd5b50610211610669565b60405161021e91906119eb565b60405180910390f35b34801561023357600080fd5b5061024e60048036038101906102499190611651565b6106f7565b60405161025b91906119b5565b60405180910390f35b34801561027057600080fd5b50610279610717565b60405161028b96959493929190611a0d565b60405180910390f35b3480156102a057600080fd5b506102a96108b5565b6040516102b893929190611b7c565b60405180910390f35b3480156102cd57600080fd5b506102d66108e1565b005b3480156102e457600080fd5b506102ed610969565b6040516102fa91906119eb565b60405180910390f35b34801561030f57600080fd5b506103186109f7565b604051610325919061199a565b60405180910390f35b34801561033a57600080fd5b50610355600480360381019061035091906116cc565b610a21565b60405161036291906119b5565b60405180910390f35b34801561037757600080fd5b50610380610a8b565b60405161038d91906119d0565b60405180910390f35b3480156103a257600080fd5b506103bd60048036038101906103b89190611651565b610a92565b6040516103ca91906119b5565b60405180910390f35b3480156103df57600080fd5b506103fa60048036038101906103f5919061167a565b610ab2565b005b34801561040857600080fd5b50610423600480360381019061041e91906116cc565b610c94565b005b61042d610cbd565b005b34801561043b57600080fd5b5061045660048036038101906104519190611651565b610e51565b005b60007f7965db0b000000000000000000000000000000000000000000000000000000007bffffffffffffffffffffffffffffffffffffffffffffffffffffffff1916827bffffffffffffffffffffffffffffffffffffffffffffffffffffffff191614806104cb57506104ca82610f49565b5b9050919050565b6104da610fb3565b73ffffffffffffffffffffffffffffffffffffffff166104f86109f7565b73ffffffffffffffffffffffffffffffffffffffff161461054e576040517f08c379a000000000000000000000000000000000000000000000000000000000815260040161054590611afc565b60405180910390fd5b6105566109f7565b73ffffffffffffffffffffffffffffffffffffffff166108fc479081150290604051600060405180830381858888f1935050505015801561059b573d6000803e3d6000fd5b50565b6000806000838152602001908152602001600020600101549050919050565b6105c68261059e565b6105d7816105d2610fb3565b610fbb565b6105e18383611058565b505050565b6105ee610fb3565b73ffffffffffffffffffffffffffffffffffffffff168173ffffffffffffffffffffffffffffffffffffffff161461065b576040517f08c379a000000000000000000000000000000000000000000000000000000000815260040161065290611b5c565b60405180910390fd5b6106658282611138565b5050565b6007805461067690611ddc565b80601f01602080910402602001604051908101604052809291908181526020018280546106a290611ddc565b80156106ef5780601f106106c4576101008083540402835291602001916106ef565b820191906000526020600020905b8154815290600101906020018083116106d257829003601f168201915b505050505081565b60056020528060005260406000206000915054906101000a900460ff1681565b606080600080600080600760086107316002600001611219565b6002600101546002800154600560003373ffffffffffffffffffffffffffffffffffffffff1673ffffffffffffffffffffffffffffffffffffffff16815260200190815260200160002060009054906101000a900460ff1685805461079590611ddc565b80601f01602080910402602001604051908101604052809291908181526020018280546107c190611ddc565b801561080e5780601f106107e35761010080835404028352916020019161080e565b820191906000526020600020905b8154815290600101906020018083116107f157829003601f168201915b5050505050955084805461082190611ddc565b80601f016020809104026020016040519081016040528092919081815260200182805461084d90611ddc565b801561089a5780601f1061086f5761010080835404028352916020019161089a565b820191906000526020600020905b81548152906001019060200180831161087d57829003601f168201915b50505050509450955095509550955095509550909192939495565b600280600001604051806020016040529081600082015481525050908060010154908060020154905083565b6108e9610fb3565b73ffffffffffffffffffffffffffffffffffffffff166109076109f7565b73ffffffffffffffffffffffffffffffffffffffff161461095d576040517f08c379a000000000000000000000000000000000000000000000000000000000815260040161095490611afc565b60405180910390fd5b6109676000611227565b565b6008805461097690611ddc565b80601f01602080910402602001604051908101604052809291908181526020018280546109a290611ddc565b80156109ef5780601f106109c4576101008083540402835291602001916109ef565b820191906000526020600020905b8154815290600101906020018083116109d257829003601f168201915b505050505081565b6000600160009054906101000a900473ffffffffffffffffffffffffffffffffffffffff16905090565b600080600084815260200190815260200160002060000160008373ffffffffffffffffffffffffffffffffffffffff1673ffffffffffffffffffffffffffffffffffffffff16815260200190815260200160002060009054906101000a900460ff16905092915050565b6000801b81565b60066020528060005260406000206000915054906101000a900460ff1681565b610aba610fb3565b73ffffffffffffffffffffffffffffffffffffffff16610ad86109f7565b73ffffffffffffffffffffffffffffffffffffffff1614610b2e576040517f08c379a0000000000000000000000000000000000000000000000000000000008152600401610b2590611afc565b60405180910390fd5b60011515600560008373ffffffffffffffffffffffffffffffffffffffff1673ffffffffffffffffffffffffffffffffffffffff16815260200190815260200160002060009054906101000a900460ff16151514610bc1576040517f08c379a0000000000000000000000000000000000000000000000000000000008152600401610bb890611adc565b60405180910390fd5b6001600660008373ffffffffffffffffffffffffffffffffffffffff1673ffffffffffffffffffffffffffffffffffffffff16815260200190815260200160002060006101000a81548160ff0219169083151502179055506000600160646002800154610c2e9190611c30565b610c389190611c61565b6002800154610c479190611cbb565b90508173ffffffffffffffffffffffffffffffffffffffff166108fc829081150290604051600060405180830381858888f19350505050158015610c8f573d6000803e3d6000fd5b505050565b610c9d8261059e565b610cae81610ca9610fb3565b610fbb565b610cb88383611138565b505050565b600260010154610cd06002600001611219565b10610d10576040517f08c379a0000000000000000000000000000000000000000000000000000000008152600401610d0790611a9c565b60405180910390fd5b60028001543414610d56576040517f08c379a0000000000000000000000000000000000000000000000000000000008152600401610d4d90611b1c565b60405180910390fd5b60011515600560003373ffffffffffffffffffffffffffffffffffffffff1673ffffffffffffffffffffffffffffffffffffffff16815260200190815260200160002060009054906101000a900460ff1615151415610dea576040517f08c379a0000000000000000000000000000000000000000000000000000000008152600401610de190611b3c565b60405180910390fd5b6001600560003373ffffffffffffffffffffffffffffffffffffffff1673ffffffffffffffffffffffffffffffffffffffff16815260200190815260200160002060006101000a81548160ff021916908315150217905550610e4f60026000016112ed565b565b610e59610fb3565b73ffffffffffffffffffffffffffffffffffffffff16610e776109f7565b73ffffffffffffffffffffffffffffffffffffffff1614610ecd576040517f08c379a0000000000000000000000000000000000000000000000000000000008152600401610ec490611afc565b60405180910390fd5b600073ffffffffffffffffffffffffffffffffffffffff168173ffffffffffffffffffffffffffffffffffffffff161415610f3d576040517f08c379a0000000000000000000000000000000000000000000000000000000008152600401610f3490611abc565b60405180910390fd5b610f4681611227565b50565b60007f01ffc9a7000000000000000000000000000000000000000000000000000000007bffffffffffffffffffffffffffffffffffffffffffffffffffffffff1916827bffffffffffffffffffffffffffffffffffffffffffffffffffffffff1916149050919050565b600033905090565b610fc58282610a21565b61105457610fea8173ffffffffffffffffffffffffffffffffffffffff166014611303565b610ff88360001c6020611303565b604051602001611009929190611960565b6040516020818303038152906040526040517f08c379a000000000000000000000000000000000000000000000000000000000815260040161104b91906119eb565b60405180910390fd5b5050565b6110628282610a21565b61113457600160008084815260200190815260200160002060000160008373ffffffffffffffffffffffffffffffffffffffff1673ffffffffffffffffffffffffffffffffffffffff16815260200190815260200160002060006101000a81548160ff0219169083151502179055506110d9610fb3565b73ffffffffffffffffffffffffffffffffffffffff168173ffffffffffffffffffffffffffffffffffffffff16837f2f8788117e7eff1d82e926ec794901d17c78024a50270940304540a733656f0d60405160405180910390a45b5050565b6111428282610a21565b1561121557600080600084815260200190815260200160002060000160008373ffffffffffffffffffffffffffffffffffffffff1673ffffffffffffffffffffffffffffffffffffffff16815260200190815260200160002060006101000a81548160ff0219169083151502179055506111ba610fb3565b73ffffffffffffffffffffffffffffffffffffffff168173ffffffffffffffffffffffffffffffffffffffff16837ff6391f5c32d9c69d2a47ea670b442974b53935d1edc7fd64eb21e047a839171b60405160405180910390a45b5050565b600081600001549050919050565b6000600160009054906101000a900473ffffffffffffffffffffffffffffffffffffffff16905081600160006101000a81548173ffffffffffffffffffffffffffffffffffffffff021916908373ffffffffffffffffffffffffffffffffffffffff1602179055508173ffffffffffffffffffffffffffffffffffffffff168173ffffffffffffffffffffffffffffffffffffffff167f8be0079c531659141344cd1fd0a4f28419497f9722a3daafe3b4186f6b6457e060405160405180910390a35050565b6001816000016000828254019250508190555050565b6060600060028360026113169190611c61565b6113209190611bda565b67ffffffffffffffff81111561135f577f4e487b7100000000000000000000000000000000000000000000000000000000600052604160045260246000fd5b6040519080825280601f01601f1916602001820160405280156113915781602001600182028036833780820191505090505b5090507f3000000000000000000000000000000000000000000000000000000000000000816000815181106113ef577f4e487b7100000000000000000000000000000000000000000000000000000000600052603260045260246000fd5b60200101907effffffffffffffffffffffffffffffffffffffffffffffffffffffffffffff1916908160001a9053507f780000000000000000000000000000000000000000000000000000000000000081600181518110611479577f4e487b7100000000000000000000000000000000000000000000000000000000600052603260045260246000fd5b60200101907effffffffffffffffffffffffffffffffffffffffffffffffffffffffffffff1916908160001a905350600060018460026114b99190611c61565b6114c39190611bda565b90505b60018111156115af577f3031323334353637383961626364656600000000000000000000000000000000600f86166010811061152b577f4e487b7100000000000000000000000000000000000000000000000000000000600052603260045260246000fd5b1a60f81b828281518110611568577f4e487b7100000000000000000000000000000000000000000000000000000000600052603260045260246000fd5b60200101907effffffffffffffffffffffffffffffffffffffffffffffffffffffffffffff1916908160001a905350600485901c9450806115a890611db2565b90506114c6565b50600084146115f3576040517f08c379a00000000000000000000000000000000000000000000000000000000081526004016115ea90611a7c565b60405180910390fd5b8091505092915050565b60008135905061160c81612092565b92915050565b600081359050611621816120a9565b92915050565b600081359050611636816120c0565b92915050565b60008135905061164b816120d7565b92915050565b60006020828403121561166357600080fd5b6000611671848285016115fd565b91505092915050565b60006020828403121561168c57600080fd5b600061169a84828501611612565b91505092915050565b6000602082840312156116b557600080fd5b60006116c384828501611627565b91505092915050565b600080604083850312156116df57600080fd5b60006116ed85828601611627565b92505060206116fe858286016115fd565b9150509250929050565b60006020828403121561171a57600080fd5b60006117288482850161163c565b91505092915050565b61173a81611cef565b82525050565b61174981611d13565b82525050565b61175881611d1f565b82525050565b600061176982611bb3565b6117738185611bbe565b9350611783818560208601611d7f565b61178c81611e9b565b840191505092915050565b60006117a282611bb3565b6117ac8185611bcf565b93506117bc818560208601611d7f565b80840191505092915050565b60006117d5602083611bbe565b91506117e082611eac565b602082019050919050565b60006117f8600f83611bbe565b915061180382611ed5565b602082019050919050565b600061181b602683611bbe565b915061182682611efe565b604082019050919050565b600061183e601b83611bbe565b915061184982611f4d565b602082019050919050565b6000611861602083611bbe565b915061186c82611f76565b602082019050919050565b6000611884601883611bbe565b915061188f82611f9f565b602082019050919050565b60006118a7601783611bcf565b91506118b282611fc8565b601782019050919050565b60006118ca601f83611bbe565b91506118d582611ff1565b602082019050919050565b60006118ed601183611bcf565b91506118f88261201a565b601182019050919050565b6000611910602f83611bbe565b915061191b82612043565b604082019050919050565b60208201600082015161193c6000850182611942565b50505050565b61194b81611d75565b82525050565b61195a81611d75565b82525050565b600061196b8261189a565b91506119778285611797565b9150611982826118e0565b915061198e8284611797565b91508190509392505050565b60006020820190506119af6000830184611731565b92915050565b60006020820190506119ca6000830184611740565b92915050565b60006020820190506119e5600083018461174f565b92915050565b60006020820190508181036000830152611a05818461175e565b905092915050565b600060c0820190508181036000830152611a27818961175e565b90508181036020830152611a3b818861175e565b9050611a4a6040830187611951565b611a576060830186611951565b611a646080830185611951565b611a7160a0830184611740565b979650505050505050565b60006020820190508181036000830152611a95816117c8565b9050919050565b60006020820190508181036000830152611ab5816117eb565b9050919050565b60006020820190508181036000830152611ad58161180e565b9050919050565b60006020820190508181036000830152611af581611831565b9050919050565b60006020820190508181036000830152611b1581611854565b9050919050565b60006020820190508181036000830152611b3581611877565b9050919050565b60006020820190508181036000830152611b55816118bd565b9050919050565b60006020820190508181036000830152611b7581611903565b9050919050565b6000606082019050611b916000830186611926565b611b9e6020830185611951565b611bab6040830184611951565b949350505050565b600081519050919050565b600082825260208201905092915050565b600081905092915050565b6000611be582611d75565b9150611bf083611d75565b9250827fffffffffffffffffffffffffffffffffffffffffffffffffffffffffffffffff03821115611c2557611c24611e0e565b5b828201905092915050565b6000611c3b82611d75565b9150611c4683611d75565b925082611c5657611c55611e3d565b5b828204905092915050565b6000611c6c82611d75565b9150611c7783611d75565b9250817fffffffffffffffffffffffffffffffffffffffffffffffffffffffffffffffff0483118215151615611cb057611caf611e0e565b5b828202905092915050565b6000611cc682611d75565b9150611cd183611d75565b925082821015611ce457611ce3611e0e565b5b828203905092915050565b6000611cfa82611d55565b9050919050565b6000611d0c82611d55565b9050919050565b60008115159050919050565b6000819050919050565b60007fffffffff0000000000000000000000000000000000000000000000000000000082169050919050565b600073ffffffffffffffffffffffffffffffffffffffff82169050919050565b6000819050919050565b60005b83811015611d9d578082015181840152602081019050611d82565b83811115611dac576000848401525b50505050565b6000611dbd82611d75565b91506000821415611dd157611dd0611e0e565b5b600182039050919050565b60006002820490506001821680611df457607f821691505b60208210811415611e0857611e07611e6c565b5b50919050565b7f4e487b7100000000000000000000000000000000000000000000000000000000600052601160045260246000fd5b7f4e487b7100000000000000000000000000000000000000000000000000000000600052601260045260246000fd5b7f4e487b7100000000000000000000000000000000000000000000000000000000600052602260045260246000fd5b6000601f19601f8301169050919050565b7f537472696e67733a20686578206c656e67746820696e73756666696369656e74600082015250565b7f4576656e7420736f6c64206f75742e0000000000000000000000000000000000600082015250565b7f4f776e61626c653a206e6577206f776e657220697320746865207a65726f206160008201527f6464726573730000000000000000000000000000000000000000000000000000602082015250565b7f5061727469636970616e74206e6f7420726567697374657265642e0000000000600082015250565b7f4f776e61626c653a2063616c6c6572206973206e6f7420746865206f776e6572600082015250565b7f496e73756666696369656e742065746865722073656e742e0000000000000000600082015250565b7f416363657373436f6e74726f6c3a206163636f756e7420000000000000000000600082015250565b7f5061727469636970616e7420616c726561647920726567697374657265642e00600082015250565b7f206973206d697373696e6720726f6c6520000000000000000000000000000000600082015250565b7f416363657373436f6e74726f6c3a2063616e206f6e6c792072656e6f756e636560008201527f20726f6c657320666f722073656c660000000000000000000000000000000000602082015250565b61209b81611cef565b81146120a657600080fd5b50565b6120b281611d01565b81146120bd57600080fd5b50565b6120c981611d1f565b81146120d457600080fd5b50565b6120e081611d29565b81146120eb57600080fd5b5056fea264697066735822122068a7a4d24f0ccc818b4284f0a74e1801e0efc9a7e34924215894fcd89b8206a364736f6c63430008040033a26469706673582212202c01e3475fc19a0313770c9a1fd8dedd6c8a3a71a42c1be44bf698ccd1eb427064736f6c63430008040033",
  "linkReferences": {},
  "deployedLinkReferences": {}
}